:020000040800F2
:10000000FCFF0020B11F0000651E0000651E0000FF
:10001000651E0000651E0000651E0000651E0000D4
:10002000651E0000651E0000651E0000651E0000C4
:10003000651E0000651E0000651E0000651E0000B4
:10004000651E0000651E0000651E0000651E0000A4
:10005000651E0000651E0000651E0000651E000094
:10006000651E0000651E0000651E0000651E000084
:10007000651E0000651E0000651E0000651E000074
:10008000651E0000651E0000651E0000651E000064
:10009000651E0000651E0000651E0000651E000054
:1000A000651E0000651E0000651E0000651E000044
:1000B000651E0000651E0000651E0000651E000034
:1000C000651E0000651E0000651E0000651E000024
:1000D000651E0000651E0000651E0000651E000014
:1000E000651E0000651E0000651E0000651E000004
:1000F000651E0000651E0000651E0000651E0000F4
:10010000651E0000651E0000651E0000651E0000E3
:10011000651E0000651E0000651E0000651E0000D3
:10012000651E0000651E0000651E0000651E0000C3
:10013000651E0000651E0000651E0000651E0000B3
:10014000651E0000651E0000651E0000651E0000A3
:1001500081B0194900EA0101084600220EE004209E
:1001600022E0082020E010201EE020201CE040209B
:100170001AE0802018E040F2001015E00F49884294
:10018000EDD00F498842ECD00E498842EBD00E49A1
:100190008842EAD00D498842E9D00D498842E8D02A
:1001A0000C498842E7D010460B49096841EA000231
:1001B00009490A6001B0704700FCFFFF00080140D8
:1001C000000C0140001001400014014000180140E3
:1001D000001C0140002001401810024081B0CDF801
:1001E00000E08CB21546774B00EA03031E46184622
:1001F000FFF7AEFFB4F1FF0F0CD1734B9D4203D15B
:100200004FF033333360D9E0422D03D14FF0443304
:100210003360D3E04FF6FF739C4214D16A4B9D428A
:1002200007D14FF033333360341D4FF03333236045
:10023000C4E0422D07D14FF044333360341D4FF0FA
:1002400044332360BAE00021002005F001030BB124
:1002500000211DE005F0020333B105F4C0730BB1BA
:10026000082100E0042113E005F0040333B105F098
:1002700020030BB1042100E0002109E005F0080390
:1002800033B105F020030BB10C2100E00821FFE79A
:100290004E4B05EA03030BB1032009E005F400739C
:1002A0000BB1022004E005F480630BB10120FFE7ED
:1002B00005F00C030BB10143FFE704F0FF039BB211
:1002C000002B3BD0376800201FFA84F832462E46B8
:1002D00008282CD24FF0010303FA00F408EA0403C3
:1002E000A34222D185004FF00F03AB40DB4307EA66
:1002F000030401FA05F344EA03031D4606F481737F
:10030000B3F5817F05D102F214044FF0010383405D
:10031000236006F08203822B05D102F210044FF015
:100320000103834023602F46FFE7401CD0E717609E
:100330001FFA88F00F463146164602E00F4629465E
:10034000A0B2B0F1FF0F39D9331DD3F800800022DD
:10035000082A30D202F208044FF0010303FA04F431
:1003600000EA0403A34224D195004FF00F03AB40F1
:10037000DB4308EA030807FA05F348EA030801F437
:100380008173B3F5817F07D106F2140502F20804E8
:100390004FF00103A3402B6001F08203822B07D1B1
:1003A00006F2100502F208044FF00103A3402B608F
:1003B000FFE7521CCCE7331DC3F80080DDF800E0F6
:1003C00001B0704700FCFFFF14000800000808009F
:1003D00001480068704700BF7800002083B0CDF866
:1003E00000E000F0FF031A09104603F00F02134665
:1003F00014E0194A02921FE0184A02921CE0184ABF
:10040000029219E0174A029216E0174A029213E08C
:10041000164A029210E0164A02920DE00028E8D037
:100420000128E9D00228EAD00328EBD00428ECD038
:100430000528EDD00628EED0012212B29A40ADF880
:10044000042002980A46BDF80410FFF7C7FEDDF845
:1004500000E003B0704700BF00080140000C0140FD
:10046000001001400014014000180140001C014030
:100470000020014081B000F218010A68C2F3400177
:1004800081F00101C9B2C8B201B0704781B000F279
:1004900014010A6800F218010968090442EA01011E
:1004A000084601B07047FFFF01490860704700BF70
:1004B000A081224201490860704700BFA481224206
:1004C00001490860704700BFB481224201490860B9
:1004D000704700BF9401214201490860704700BF86
:1004E0009C81214201490860704700BF98812142E8
:1004F00001490860704700BF90012142014908602E
:10050000704700BF8001214201490860704700BF69
:10051000B001224201490860704700BFAC0122428D
:1005200001490860704700BFA801224201490860E4
:10053000704700BFA881224201490860704700BF90
:100540008801224201490860704700BF988121421A
:1005500001490860704700BF948122420149086048
:10056000704700BF9881224281B0CDF800E00B4671
:10057000FFF78CFF00EA03029A4240F2000200D12A
:100580000122D0B2DDF800E001B0704781B0CDF8B3
:1005900000E04FF000021949884207D118490B6862
:1005A00018490A6818490A601C460BE01749884236
:1005B00007D117490B6817490A6813490A601C4696
:1005C00000E0144614490C6003461846FFF752FF3A
:1005D00070B91149096851B12CB905200A4C246839
:1005E000A047002005E0611E08460446FFE7ECE74F
:1005F0000120DDF800E001B0704700BF005400406A
:1006000024000020800000207C00002000580040D2
:1006100028000020840000202C00002001490860F0
:10062000704700BF9C81214201490860704700BFAC
:10063000B081224201490860704700BFA8012242F0
:1006400001490860704700BFB88122420149086033
:10065000704700BF8C01224201490860704700BF0B
:10066000B081224201490860704700BFB0012242B8
:1006700001490860704700BFAC01224282B0CDF84A
:1006800000E0034619460191FFF7A2FE40F2E8316F
:1006900000FB01F201990A601F490978C1F30311B7
:1006A000C8B21E4909180878C0B21A1D1968C1409D
:1006B000116019490988C1F3022188B21749091844
:1006C0000878C0B203F20802191D0968C140116020
:1006D00011490988C1F3C22188B210490918087864
:1006E000C0B203F20C02191D0968C14011600A4929
:1006F0000988C1F3813188B2094909180978C8B25B
:1007000003F2100203F20C010968B1FBF0F1116071
:10071000DDF800E002B07047041002401022000033
:100720007C1A000081B0CDF800E0012252B23E49AF
:100730000A6000F268010B686FF0006103EA0102D1
:10074000144603F00061C90E0B4602F00041B1F1FE
:10075000004F02D135490A6801E035490A6804F4BE
:100760007021090C0E464FF6FF7104EA01010D4697
:1007700004F44011B1F5401F0DD16FF0706102EA31
:1007800001010E462A490A686FF070610A40284943
:100790000A60324616E004F48011B1F5801F09D1D9
:1007A0004FF00301B140C94302EA010141F0706119
:1007B0000A4607E0610D090105FA01F1C9430A4043
:1007C00042F070622BB1610D090105FA01F10A4393
:1007D000FFE704F00041B1F1004F02D113490A6074
:1007E00001E013490A6040F2000A81464FEA8A019B
:1007F00009EB01010968B1F1FF3F10D009F13401A3
:100800004FEA8A03C91809680A4609EB0301096817
:1008100008461146FFF7E2FD0AF1010AE6E7DDF8B6
:1008200000E001B0704700BF000342421C000140DD
:100830000400014082B0CDF800E0029E4FF00005B8
:10084000564CA04206D1564C2768564C2568564C4B
:1008500025600AE0554CA04206D1554C2768554CFE
:100860002568514C256000E02F46534C276000F26C
:1008700010054C00A4B22C60B94607469046354698
:100880001E464E493846FFF76FFE88B94A4C246829
:100890006CB1B9F1000F06D10420434C2468A04785
:1008A0004FF6FF7076E0A9F101008146FFE7E8E727
:1008B0000020019729463746019E7C1EA04226D281
:1008C00006F2100508EB000424782C603A4CD4F8AA
:1008D000009082460D463A493046FFF745FE88B9FA
:1008E000354C24686CB1B9F1000F06D104202E4CB0
:1008F0002468A0474FF6FF704CE0A9F10100814643
:10090000FFE7E8E70AF1010420462946D5E706F2A9
:10091000100508EB000424782C60274C27680D464E
:1009200028493046FFF720FE70B9234C246854B1A3
:1009300037B904201C4C2468A0474FF6FF7029E00B
:10094000781E0746FFE7EBE7012D05D10125346846
:1009500065F3492434601CE00125346865F30824FC
:100960003460154C2768354617492846FFF7FCFDCB
:1009700078B9114C24685CB137B904200A4C24685A
:10098000A0474FF6FF7005E07C1E20460746FFE7B4
:10099000EAE70020DDF800E002B0704700540040B4
:1009A00024000020800000207C000020005800402F
:1009B00028000020840000202C0000208200070076
:1009C00080000700840007000100030081B0ADF83B
:1009D00000100146BDF800000B68C3F3C01202B955
:1009E000FAE70A1D106001B07047FFFF88B0CDF82C
:1009F00000E00E46554B98420DD1012464B2544B91
:100A00001C60544C544B1C60544C554B1C60554C52
:100A1000554B1C600FE0554B98420CD1012464B239
:100A2000534B1C60534C4C4B1C60534C4C4B1C6048
:100A3000524C4D4B1C60019602901046FFF772FE1F
:100A40000298019E031D1B689CB26FF03F0304EAED
:100A500003039DB203AB01901846FFF70FFE019808
:100A6000059F059C464BB4FBF3F399B29BB245EA54
:100A70000304A4B2031D1C600024036864F3000394
:100A8000036000223F4B9E4212D87300B7FBF3F481
:100A9000A4B2042C02D204231C46FFE742EA04035A
:100AA0009AB200F220044B1C9BB2236091B23FE04B
:100AB000032306FB03F4B7FBF4F31FFA83F81923AF
:100AC00006FB03F5B7FBF5F31FFA83F908FB04F403
:100AD00009FB05F33C1BFB1A9C4205D2032373431D
:100AE000B7FBF3F4A4B206E019237343B7FBF3F4A6
:100AF000A4B244F4804440F6FF7304EA030313B93C
:100B000044F00104FFE744F400439BB21A4392B25D
:100B100000F2200540F22C1301FB03F4A4B240F2D2
:100B2000E833B4FBF3F39BB25B1C9BB22B6091B236
:100B300000F21C031960002303600124036864F3BE
:100B400000030360DDF800E008B070470054004087
:100B5000D40342425116000088000020D514000042
:100B60008C000020991500009000002000580040E3
:100B7000D803424299160000B11400007515000018
:100B800040420F00A086010089B0CDF800E0834606
:100B900098B28C46BDF824100A9E04ACADF804103F
:100BA000ADF808002046FFF769FDBDF80800BDF864
:100BB0000410644CA34512D101256DB2624C25602E
:100BC000624D634C2560634D634C2560634D644CFE
:100BD0002560644D644C2560079C039456E0634C8B
:100BE000A34512D101256DB2614C2560614D584C71
:100BF0002560614D584C2560604D594C2560604D15
:100C0000594C2560069C039440E05E4CA34512D1EC
:100C100001256DB25C4C25605C4D4D4C25605C4DF2
:100C20004D4C25605B4D4E4C25605B4D4E4C256018
:100C3000069C03942AE0594CA34512D101256DB2BC
:100C4000574C2560574D424C2560574D424C25600E
:100C5000564D434C2560564D434C2560069C0394ED
:100C600014E0544CA34511D101256DB2524C2560BE
:100C7000524D374C2560524D374C2560514D384C04
:100C80002560514D384C2560069C0394ADF8041046
:100C9000ADF808003046FFF745FDBDF80800BDF887
:100CA00004100BF1100500242C600BF110052C68CA
:100CB0000C432C600BF10C0500242C6018B140F49F
:100CC000806080B2FFE70BF10C052C6804432C60B8
:100CD0000BF10C060125346865F34D3434600BF1DB
:100CE0000C060125346865F3C30434600BF10C066F
:100CF0000125346865F3820434600BF11405002487
:100D00002C60039D192465434FEA8C04B5FBF4F76E
:100D10006424B7FBF4F42601350964246C433C1BBE
:100D2000240104F232056424B5FBF4F404F00F044A
:100D300046EA04040BF10805A4B22C60DDF800E0DB
:100D400009B070470038014038034242591500008D
:100D50009400002081160000980000206916000011
:100D60009C00002025130000A0000020004400404B
:100D7000C4034242351400006D13000055130000F7
:100D8000CD13000000480040C8034242191400007F
:100D9000B51300009D130000E5130000004C004057
:100DA000CC034242FD130000851300003D130000F8
:100DB0002915000000500040D003424251140000A9
:100DC00011150000F91400004115000082B0CDF8A3
:100DD00000E0CFB201469846029B4FF000064FF06C
:100DE0000005C44CA14207D1C34CD4F80090C34CB9
:100DF0002568C34C25600BE0C24CA14207D1C24C10
:100E00002068C24C2568BE4C2560814600E0A9469A
:100E1000BF4CC4F80090F4E101F210057C00A4B2CC
:100E200044F00104A4B22C60019616464F46019A84
:100E300001F214042568C5F3400464B9B44C246875
:100E400044B127B90320AE4C2468A047E2E1781EE4
:100E50000746FFE7ECE700250C6865F38A240C6081
:100E600001F21404206800BF01F21804246824046D
:100E700040EA04042046012B05D101250C6865F3E6
:100E800049240C6004E001250C6865F308240C601B
:100E90009F4C25689146984637460E469D493046F8
:100EA000FFF762FB68B99A4C24684CB125B903205E
:100EB000934C2468A047ADE16C1E20460546FFE731
:100EC000ECE707EB090506F2100424682C70B8F172
:100ED000010F13D18E4C216830460568C5F34024BC
:100EE0005CB98B4C24683CB121B90320844C246844
:100EF000A0478FE1491EFFE7EFE712E0844C21682D
:100F000030460568C5F300245CB9814C24683CB1C7
:100F100021B903207A4C2468A0477BE1491EFFE7F2
:100F2000EFE777E101250C6865F38A240C60012561
:100F30000C6865F3CB240C6001F210057C00A4B2B0
:100F400044F00104A4B22C604F4601F21404256859
:100F5000C5F3400464B96E4C246844B127B903203A
:100F6000674C2468A04755E1781E0746FFE7ECE789
:100F700001F21404206800BF01F21804246824045C
:100F8000204300250C6865F38A240C60604C2768B8
:100F900001F214042568C5F3800464B95C4C24682C
:100FA00044B127B90320564C2468A04732E1781E8B
:100FB0000746FFE7ECE7012B05D101250C6865F337
:100FC00049240C6004E001250C6865F308240C60DA
:100FD000951901F2100424682C70741C151901F283
:100FE000100424682C70012B14D1494C22680D6820
:100FF000C5F3402464B9464C246844B122B90320A7
:101000003F4C2468A04705E1501E0246FFE7EEE78B
:10101000084613E03E4C22680D68C5F3002464B90D
:101020003B4C246844B122B90320354C2468A047C6
:10103000F0E0501E0246FFE7EEE708460025046890
:1010400065F3CB240460E5E001250C6865F38A2490
:101050000C6001F210057C00A4B244F00104A4B2BB
:101060002C604646C846894617461D462A494846CA
:10107000FFF77AFA78B9264C24685CB1B8F1000F12
:1010800004D103201E4C2468A047C3E0A8F101004E
:101090008046FFE7EAE70021A8464A46B1463B46BC
:1010A000A9F10304A14222D2194C25688A461746A9
:1010B0001E4618493846FFF757FA60B9144C2468A1
:1010C00044B125B903200E4C2468A047A2E0681E55
:1010D0000546FFE7EDE706EB0A0507F21004246872
:1010E0002C700AF10104214633463A46D8E7084CF1
:1010F00000F014B8005400402400002080000020BC
:101100007C000020005800402800002084000020BF
:101110002C00002040000300020003002768019318
:101120000B4616464246019906F214042568C5F39B
:10113000800464B9394C246844B127B90320384C81
:101140002468A04766E0781E0746FFE7ECE7002525
:10115000346865F38A243460CD1806F210042468DC
:101160002C70581C2D4C23681746024606F21404B6
:101170002568C5F3800464B9284C246844B123B9B8
:101180000320274C2468A04744E0581E0346FFE78D
:10119000ECE7012F07D10125346865F34924346059
:1011A0001046324621E00125346865F30824346096
:1011B0001A4CD4F8008017460D461A493046FFF7FE
:1011C000D3F978B9154C24685CB1B8F1000F04D19B
:1011D0000320134C2468A0471CE0A8F101008046BE
:1011E000FFE7EAE72946324638460D1802F21004B6
:1011F00024682C70441C0D1902F2100424682C7011
:1012000008E0B8F1010F3FF407AEB8F1020F3FF468
:1012100089AE19E7DDF800E002B070472C0000202D
:101220007C0000200100030081B00268C2F340117D
:1012300001B9FAE7011D096888B201B07047FFFFE4
:1012400083B0CDF800E003464FF0000026498B4202
:1012500006D126490C6826490A6826490A600BE02F
:1012600025498B4207D12549086825490A68214943
:101270000A60044600E0044622490C60019402938F
:101280001846FFF783F9029B019C10B94FF6FF70D7
:1012900025E00122196862F30821196003F21401A4
:1012A0000A68C2F3402111B14FF6FF7017E02546DE
:1012B0001C4615492046FFF757F978B911490968C6
:1012C00059B135B906200B4C2468A0474FF6FF7082
:1012D00005E0691E08460546FFE7EAE70020DDF85D
:1012E00000E003B0704700BF00540040240000201D
:1012F000800000207C0000200058004028000020D2
:10130000840000202C0000200100030081B001684F
:10131000C1F3401001B0704781B00168C1F3801083
:1013200001B0704781B0CDF800E00348FFF7F4FF4B
:10133000DDF800E001B070470038014081B0CDF821
:1013400000E00348FFF7E2FFDDF800E001B070477E
:10135000004C004081B0CDF800E00348FFF7D6FF15
:10136000DDF800E001B070470044004081B0CDF8E6
:1013700000E00348FFF758FFDDF800E001B07047D8
:101380000044004081B0CDF800E00348FFF74CFF77
:10139000DDF800E001B07047004C004081B0CDF8AE
:1013A00000E00348FFF7B2FFDDF800E001B070474E
:1013B0000048004081B0CDF800E00348FFF734FF5B
:1013C000DDF800E001B070470048004081B0CDF882
:1013D00000E00348FFF7A0FFDDF800E001B0704730
:1013E0000044004081B0CDF800E00348FFF794FFCF
:1013F000DDF800E001B070470048004081B0CDF852
:1014000000E081B20348FFF7E1FADDF800E001B047
:10141000704700BF004C004081B0CDF800E081B2C1
:101420000348FFF7D3FADDF800E001B0704700BFD2
:101430000048004081B0CDF800E081B20348FFF7DA
:10144000C5FADDF800E001B0704700BF004400407D
:1014500081B0CDF800E081B20348FFF7B7FADDF8BC
:1014600000E001B0704700BF0050004081B006B5F9
:101470004FEA40024FEA12627F3A44BF4FF0000049
:1014800011E0D2F11F0209D94FEA002141F00041D9
:10149000D14000284CBF4842084604E000284FF0E5
:1014A000004058BF401EBDE8064001B07047FFFF36
:1014B00081B0CDF800E008B413460A46C1B2044832
:1014C000FFF784FC01B0DDF800E001B0704700BF19
:1014D0000058004081B0CDF800E008B413460A4639
:1014E000C1B20448FFF772FC01B0DDF800E001B0C2
:1014F000704700BF0054004081B0CDF800E00348C1
:10150000FFF704FFDDF800E001B070470050004035
:1015100081B0CDF800E00348FFF786FEDDF800E07B
:1015200001B070470050004081B0CDF800E00348A2
:10153000FFF7F2FEDDF800E001B07047004C00401C
:1015400081B0CDF800E00348FFF7E6FEDDF800E0EB
:1015500001B070470050004081B0CDF800E081B28A
:101560000348FFF733FADDF800E001B0704700BF31
:101570000038014081B0CDF800E008B413460A46B7
:10158000C1B20448FFF756F901B0DDF800E001B040
:10159000704700BF0058004081B0CDF800E008B4AB
:1015A00013460A46C1B20448FFF744F901B0DDF81A
:1015B00000E001B0704700BF0054004081B0CDF89A
:1015C00000E0019D2C4610B408B493B28AB20146E3
:1015D0000348FFF7D9FA02B0DDF800E001B0704728
:1015E0000038014081B0CDF800E0019D2C4610B4D8
:1015F00008B493B28AB201460348FFF7C5FA02B0B5
:10160000DDF800E001B070470044004081B0CDF843
:1016100000E00A4601460348FFF7E8F9DDF800E07C
:1016200001B070470054004081B0CDF800E0019D4A
:101630002C4610B408B493B28AB201460348FFF7AF
:10164000A3FA02B0DDF800E001B0704700480040A6
:1016500081B0CDF800E00348FFF7F2FDDDF800E0CF
:1016600001B070470054004081B0CDF800E003485D
:10167000FFF74CFEDDF800E001B070470038014094
:1016800081B0CDF800E00348FFF7CEFDDDF800E0C3
:1016900001B070470038014081B0CDF800E0034848
:1016A000FFF7CEFDDDF800E001B0704700580040C4
:1016B000026806490A60011D0A6805490A6000F2CD
:1016C00008010A6803490A60704700BF70000020E3
:1016D0006C0000207400002081B0CDF800E001789B
:1016E000CCB2A0B2034C2468A0470020DDF800E093
:1016F00001B070476800002081B0CDF800E00949D2
:1017000002B440F2000340F2000240F20001FFF791
:1017100069FF01B0044A05490A600020DDF800E0D5
:1017200001B070471421000035140000680000204B
:1017300082B0CDF800E040F20004ADF80440044C63
:101740002468A047BDF90400DDF800E002B070474E
:101750007400002081B0FAB590EA02064CBF4FF049
:1017600000464FF000064FEA00214FEA40031B0EEF
:1017700012BF41F000414FF000002CE0FF2B26D0BB
:101780004FEA02244FEA42052D0E12BF44F00044F6
:101790004FF000001FE0FF2D19D05B19A1FB04548E
:1017A000002C5CBF64005B1E803424BF5B1C64089B
:1017B0007E3BDCBF4FF000000DE0FF2B07D24FEA6D
:1017C000142030F4000040EAC350304303E0FF2708
:1017D000FF0546EA0700BDE8FA4001B07047FFFF89
:1017E00081B0CDF800E002B5002802D5FFF73EFE3B
:1017F00013E04FEA40014FEA11617F393CBF4FF0DF
:1018000000000AE0D1F11F0105D34FEA002040F0AB
:101810000040C84001E00020401EBDE80240DDF865
:1018200000E001B07047FFFF81B00A4681B200209E
:101830008DB21146052805D20B1820221A70401CC3
:10184000C0B2F7E70B1800221A70401EC0B20C1885
:101850000A23B5FBF3F203FB125292B2303222702C
:101860000A22B5FBF2F292B295B202B902E0401E32
:10187000C0B2ECE701B070477047FFFF82B0CDF80F
:1018800000E040F20004ADF80440064C2468A04794
:10189000BDF9041041EA000000B2DDF800E002B03A
:1018A000704700BF7000002081B0002808BF0FE023
:1018B00002B54FF09E0202D4521E4000FCD580308B
:1018C0002CBF521C4000400A40EAC250BDE8024012
:1018D00001B0704782B0CDF800E040F20004ADF8EE
:1018E0000440054C2468A047BDF90440044320B2DD
:1018F000DDF800E002B070476C00002081B0CDF848
:1019000000E0016808460449FFF780FE0020DDF88A
:1019100000E001B0704700BFA820000081B0CDF802
:1019200000E0094902B440F2000340F2000240F234
:101930000001FFF779FE01B0044A05490A60002062
:10194000DDF800E001B070473C20000019140000F1
:101950006800002081B0CDF800E0094902B440F2EF
:10196000000340F2000240F20001FFF727FE01B041
:10197000044A05490A600020DDF800E001B0704724
:10198000D01F0000591500006800002081B0CDF87C
:1019900000E0016808460449FFF738FE0020DDF842
:1019A00000E001B0704700BFA820000081B0CDF872
:1019B00000E0094902B440F2000340F2000240F2A4
:1019C0000001FFF70FFE01B0044A05490A6000203C
:1019D000DDF800E001B0704714210000351400006C
:1019E0006800002082B0CDF800E001AB1E21197024
:1019F0005A1C010A11709A1C00F0FF011170FFF7C8
:101A00003DFF01AA064909780123C8B21146032205
:101A1000FFF760FF00F0DCF8DDF800E002B070478F
:101A20006600002082B0CDF800E001A92A200870ED
:101A3000FFF724FF01A91048007800230122FFF7D7
:101A400049FF00F0C5F80DF105010B4800780123AE
:101A50000222FFF76DFE0DF105021078010289B236
:101A6000501C0078014389B240F6FF7001EA000083
:101A7000DDF800E002B070476600002002040608AE
:101A800041F6FF27C0F2B7077F1EFDD100BF00BFA0
:101A900000BF00BF00BF704781B0CDF800E08B46AB
:101AA00009E05846FFF72AFF0AE05846FFF76EFFA5
:101AB00006E0012004E00028F3D00128F5D0F8E783
:101AC000DDF800E001B0704781B0CDF800E00E46CF
:101AD000002183B2002805DA0121404280B280B2A1
:101AE0008FB201E098B28FB23146FFF79DFE06211A
:101AF0003446B8B2002908D963184A1E92B2A21817
:101B000012781A70491E89B2F4E72022227070B14F
:101B1000002081B2204642181278202A02D1491CA6
:101B200089B2F8E74A1E92B283182D221A70DDF8A6
:101B300000E001B07047FFFF81B0CDF800E004463F
:101B4000054B1A700846FFF7B3FD2046FFF794FED9
:101B5000DDF800E001B070476600002083B0CDF8EA
:101B600000E0024610460D228DF808200A228DF86A
:101B700009201FE0FFF7B0FD23E002782AB10190B1
:101B8000FFF7AAFD0198401CF7E71AE002782AB196
:101B90000190FFF7A1FD0198401CF7E702AA10464B
:101BA000FFF79AFD0DF109021046FFF795FD08E0D9
:101BB000062007E00029DDD00129DED00229E5D08A
:101BC000F6E70020DDF800E003B07047A0860100D2
:101BD00044F67F77C0F212077F1EFDD100BF00BF21
:101BE00000BF00BF00BF704781B0CDF800E011E03A
:101BF0000846FFF793FE16E00846FFF7D7FE12E00F
:101C00000846FFF7A7FE0EE00846FFF775FD0AE05D
:101C1000012008E00028EBD00128EDD02028EFD0EB
:101C20003028F1D0F4E7DDF800E001B07047FFFFA5
:101C300082B0CDF800E001A920200870FFF71EFE59
:101C400001A91548007800230122FFF743FEFFF7A2
:101C5000BFFF0DF105011048007801230222FFF7B4
:101C600067FD0DF105021078010289B2501C007861
:101C7000014389B240F6FF7001EA000080B2FFF72D
:101C800013FE064AFFF766FDFFF7AAFD80B2DDF8F6
:101C900000E002B0704700BF660000200000B43DC5
:101CA00081B0CDF800E00C2212491348FFF744FF41
:101CB00041F2000140F2000040EA010189B240F621
:101CC0000000014389B240F20020014389B240F292
:101CD0000010014389B240F2800041EA0000FFF7A2
:101CE00081FE06480221FFF739FFDDF800E001B070
:101CF000704700BF2022000080210000000000206B
:101D000081B01548006840F0010113480160134993
:101D10001348016010480168124801400E480160F4
:101D20000D4801686FF4802001400B4801600C48A9
:101D300001686FF4FE00014009480160064801682F
:101D40006FF0A0500140044801604FF000010648C8
:101D5000016001B0704700BF001002400000FFF0BA
:101D600004100240FFFFF6FE2C10024081B0CDF8B7
:101D700000E0084801460020FFF78EFE42F2805145
:101D80002020FFF731FFFFF723FFDDF800E001B06F
:101D9000704700BFCC1B000081B0CDF800E0FFF71A
:101DA00047FF1249088000B21149FFF78DFE114824
:101DB0000121FFF7D3FE02210D48FFF7CFFEFFF709
:101DC00031FE0D49088000B20949FFF77DFE0B483E
:101DD0000121FFF7C3FE02210548FFF7BFFEFFF711
:101DE0004FFEDDF800E001B0704700BF300000207A
:101DF00032000020100000206400002018000020A5
:101E000081B04FF000094FF0000CBDEB0A0F04DC6D
:101E1000BDEB0B0F01DBD446EA464BF8049BBBEB52
:101E20000A0FFAD1BCEB0A0F05DDE246D9F800B083
:101E30000BF1040BF1E701B07047FFFF81B01CF814
:101E4000019B0BF8019BBBEB0A0FF8D101B0704767
:101E500081B002490248016001B070474019010099
:101E60007800002081B0FEE701B0704781B0CDF866
:101E700000E0464A464B474C47494BF6803081428A
:101E800006D94648006840F002014448016011E06C
:101E900045F6C050814206D94048006840F0010133
:101EA0003E48016006E03D4801686FF007000140D0
:101EB0003A480160FFF724FF39480360394804605D
:101EC000394802EA00013948016002F0010040B1DE
:101ED00019463648006800F00200002800D1F8E7F3
:101EE00000E0194602F4803040B10B462F480068EC
:101EF00000F40030002800D1F8E700E00B4602F0C3
:101F0000805068B12948006840F08051274801603E
:101F10002648006800F00050002800D1F8E7FFE7ED
:101F200002F0806078B12148006840F080611F486D
:101F3000016011461A461D48006800F00060002844
:101F400000D1F8E701E011461A4601F0807070B147
:101F50001648006840F0807114480160114613482B
:101F6000006800F0007000B9F9E70A46FFE70C4886
:101F7000006800F00C01900000F00C00814200D0DD
:101F8000F5E7DDF800E001B0704700BF8100010512
:101F900002841D0044060100401901000020024097
:101FA000041002402C100240FFFF0F0000100240FE
:101FB000FFF75CFF00F07AF9FFF74AFF00F036F90F
:101FC000FFF7D4FEFFF76CFEFFF7E6FEFCE7FEE747
:101FD000090000000A000000FFFFFFFF00000000F2
:101FE00000000000000000000000000000000000F1
:101FF00000000000000000000000000000000000E1
:102000000000000018080000180000000000000098
:1020100000000000000000000000000000000000C0
:1020200000000000000000000000000000000000B0
:102030000000000000000000040000003800000064
:1020400039000000FFFFFFFF00000000000000005B
:102050000000000000000000000000000000000080
:102060000000000000000000000000000000000070
:102070001808000018000000000000000000000028
:102080000000000000000000000000000000000050
:102090000000000000000000000000000000000040
:1020A00000000000300014081600000017000000B7
:1020B000FFFFFFFF00000000000000000000000024
:1020C0000000000000000000000000000000000010
:1020D00000000000000000000000000028080000D0
:1020E00028080000000000000000000000000000C0
:1020F00000000000000000000000000000000000E0
:1021000000000000000000000000000000000000CF
:10211000020000003500000036000000FFFFFFFF56
:1021200000000000000000000000000000000000AF
:10213000000000000000000000000000000000009F
:102140000000000000000000180800001800000057
:10215000000000000000000000000000000000007F
:10216000000000000000000000000000000000006F
:10217000000000000000000000000000080000084F
:10218000F104000039050000C10400002105000031
:102190001505000009050000FD0400002D050000E4
:1021A000B5040000A9040000E5040000D904000003
:1021B000FFFFFFFFFFFFFFFFFFFFFFFFFFFFFFFF2F
:1021C000FFFFFFFFFFFFFFFFFFFFFFFFFFFFFFFF1F
:1021D000FFFFFFFFFFFFFFFFFFFFFFFFFFFFFFFF0F
:1021E000496E697469616C697A652E2E2E2E2E00F7
:1021F000416E676C65203A004D61676E6574696376
:1022000073203A0000000000000000000000000001
:10221000000000000102030401020304060708098C
:102220005116000099150000D514000000B5DFF824
:1022300014B0DFF814A0DFF814C0FFF7FFFD00BDF5
:10224000704700BF0000002030000020E0210000A7
:10225000FFFFFFFFFFFFFFFFFFFFFFFFFFFFFFFF8E
:10226000FFFFFFFFFFFFFFFFFFFFFFFFFFFFFFFF7E
:10227000FFFFFFFFFFFFFFFFFFFFFFFFFFFFFFFF6E
:10228000FFFFFFFFFFFFFFFFFFFFFFFFFFFFFFFF5E
:10229000FFFFFFFFFFFFFFFFFFFFFFFFFFFFFFFF4E
:1022A000FFFFFFFFFFFFFFFFFFFFFFFF00B5DFF8AE
:1022B00010B0DFF810A0FFF7A3FD00BD704700BF0E
:1022C00000000020A4000020FFFFFFFFFFFFFFFF32
:00000001FF
