:02000004000BEF
:10000000FCFF002079160B0021160B0021160B00B7
:1000100021160B0021160B0021160B0021160B00D8
:1000200021160B0021160B0021160B0021160B00C8
:1000300021160B0021160B0021160B0021160B00B8
:1000400021160B0021160B0021160B0021160B00A8
:10167800FFF7ECFF00F010F8FFF7D2FF00F072F967
:1016880000F05AF800F02EF9FFF7B0FFFFF760FFFF
:08169800FFF72AFFFCE7FEE763
:1014DC0081B01CF8019B0BF8019BBBEB0A0FF8D1F8
:0414EC0001B0704794
:1015B80081B04FF000094FF0000CBDEB0A0F04DCBE
:1015C800BDEB0B0F01DBD446EA464BF8049BBBEBA3
:1015D8000A0FFAD1BCEB0A0F05DDE246D9F800B0D4
:0A15E8000BF1040BF1E701B07047AE
:1015F40081B0CDF800E0084801460020FFF756FE10
:1016040042F280510120FFF717FFFFF7F7FEDDF8E4
:0C16140000E001B0704700BFE8180B00B8
:1012B00081B0CDF800E009E00846FFF797FF0AE0AB
:1012C0000846FFF783FF06E0012004E00028F3D082
:0E12D0000128F5D0F8E7DDF800E001B0704726
:1011EC0081B0CDF800E0016808460449FFF74AFEDB
:1011FC000020DDF800E001B0704700BFCC170B00F9
:100E900081B0CDF800E083468C4600230D4A1360F4
:100EA0006046FFF723FC0C4C0C4B0D4A19461046CC
:100EB0002246FFF7BFFE0CF10C021268D3B2094ABA
:100EC000126859461046DAB2FFF7F8FCDDF800E088
:100ED00001B0704730000020250E0B00390D0B00CB
:080EE000E90E0B002C000020BC
:1006EC0081B0CDF800E040F2000A81464FEA8A0161
:1006FC0009EB01010968B1F1FF3F12D009F1340196
:10070C004FEA8A03C91809680A4609EB030109680C
:10071C0008461146FFF7B0FF0AF1010A1FFA8AFAE0
:0A072C00E4E7DDF800E001B07047DB
:1006840082B0CDF800E000F0FF02130902F00F027F
:100694001446D8B2FFF780FE012212B2A240ADF890
:1006A400042000460A469DF80410FFF709FEDDF811
:0606B40000E002B07047F7
:10039C0081B027E028484DE028484BE0284849E048
:1003AC00284847E0284845E0284843E0284841E0F1
:1003BC0028483FE028483DE028483BE0284839E001
:1003CC00284837E0284835E0284833E0284831E011
:1003DC0028482FE028482DE028482BE0284829E021
:1003EC00284827E00028D5D00128D5D00228D5D020
:1003FC000328D5D00428D5D00528D5D00628D5D0AB
:10040C000728D5D00828D5D00928D5D00A28D5D08A
:10041C000B28D5D00C28D5D00D28D5D00E28D5D06A
:10042C000F28D5D01028D5D01128D5D01228D5D04A
:10043C001328D5D001B07047001008402010084098
:10044C00401008406010084080100840A010084080
:10045C00C0100840E010084000110840201108406E
:10046C00401108406011084080110840A01108405C
:10047C00C0110840E011084000120840201208404A
:08048C00401208406012084014
:1002C40081B01446314B984203D8314B984200D345
:1002D40000E058E02E4BC31A03F01F0303B152E0B1
:1002E400064600F5A0624FF6FF7304EA03031846BE
:1002F400284B04EA03031B0C40F20008CFB201466A
:100304001846B8F1080F3ED201231BB203FA08F3D2
:100314001BB21CB207EA0403A34231D101F44053D7
:100324008BB14FEA8803F5182C686FF4405304EA44
:1003340003032B604FEA8803F51801F440542B683B
:1003440023432B601CE04FEA8803F5182C68114BFB
:1003540004EA03032B604FEA8803F41823680B4371
:1003640023604FEA8803D5182C686FF0FF0304EA72
:1003740003032B604FEA8803D418236803432360E4
:1003840008F10108BDE701B0704700BFC012084082
:08039400001008400000FFFF0B
:100C340081B0044B1860044B1960044B1A6001B076
:100C4400704700BFA4000020A8000020AC000020D2
:1008BC0081B000F2280440F20023236000F22804E7
:1008CC000023236080230370041D0123238001294E
:1008DC0015D100F22C0444F64F73238000F240042F
:1008EC00234B236000F22404224B236000F24404C7
:1008FC00214B236000F218044D2323702EE00429B1
:10090C0015D100F22C0440F61773238000F240043A
:10091C001A4B236000F22404194B236000F24404A8
:10092C00184B236000F218040A23237016E01029D8
:10093C0014D100F22C0440F20953238000F240043D
:10094C00114B236000F224040D4B236000F244048D
:10095C000C4B236000F2180406232370C123037090
:10096C0000F2280442F4E0531BB2236001B070473C
:10097C0006434D0CED01FC01C7C29C4B010A0A0455
:0C098C0050000001C7C29C1401060606C2
:1011CC0081B0CDF800E0016808460449FFF75AFEEB
:1011DC000020DDF800E001B0704700BFCC170B0019
:10143C0081B0CDF800E009E00846FFF7E1FE0AE0D4
:10144C000846FFF72FFE06E0012004E00028F3D049
:0E145C000128F5D0F8E7DDF800E001B0704798
:10120C0081B0CDF800E0002300220321FFF774FE2B
:10121C00034A04490A600020DDF800E001B0704781
:08122C002D050B004800002015
:100F040084B0CDF800E01FFA82FB1FFA83FC0022B4
:100F14008DF80420ADF8081003904A48FFF7E4FB6D
:100F24000398BDF808109DF80420ADF80410029051
:100F3400FFF7C2FB0298BDF804100025424C25704F
:100F44000025424C2570B0F5E13F06D9404CA04243
:100F540003D83F4CB4FBF0F308E0B0F5E13F04D80C
:100F64004FF4E134B4FBF0F300E00123ADF80410D6
:100F74000290FFF7ADFB0298BDF8041003F0FF04E4
:100F8400E5B2344C25701C0A04F07F04E5B2324CFF
:100F94002570B0F5E13F06D92F4C247844F0800544
:100FA4002D4C257005E02C4C247804F07F052A4C48
:100FB4002570ADF80410FFF77FFBBDF80410002581
:100FC400264C25700BE042F00100C0B20EE042F066
:100FD4000200C0B20AE042F00300C0B206E00129F8
:100FE400F1D00229F3D00329F5D0F4E74FEA8C04B9
:100FF400A4B240EA04044FEACB05ADB2E4B22C43F8
:10100400E4B204F07F05154C25700025144C2570BE
:101014000025144C2570144D144C2560144D154CAA
:101024002560154D154C2560154D164C2560164C44
:10103400247844F00105144C2570DDF800E004B078
:10104400704700BF64170B00F0270F4001240F40C6
:1010540060E3160000240F4001240F4003240F40D6
:1010640004240F4002240F40E10C0B00B8000020C0
:101074002D050B00BC000020C50C0B00C000002097
:0C108400A90C0B00C400002030270F4016
:1006BC0081B00448007800F07F010248017001B05D
:0806CC00704700BF03240F403A
:1006D40081B00448007840F080010248017001B004
:0806E400704700BF03240F4022
:1010B00081B0CDF800E0002300220321FFF722FFDA
:1010C000034A04490A600020DDF800E001B07047DF
:0810D0002D050B004800002073
:1014000046F6FE17C0F2180700BF00BF7F1EFDD1D1
:0814100000BF00BF00BF7047E0
:1015580081B0CDF800E00C2212491348FFF758FF7C
:1015680041F2000140F2000040EA010189B240F670
:101578000000014389B240F20020014389B240F2E1
:101588000010014389B240F2800041EA0000FFF7F1
:10159800A3FE06480221FFF765FFDDF800E001B071
:1015A800704700BFDC180B0034180B000000002047
:1014180081B0CDF800E00446054B1A700846FFF786
:10142800A7FE2046FFF7B8FEDDF800E001B07047E0
:04143800820000200E
:10117800026806490A60011D0A6805490A6000F20A
:1011880008010A6803490A60704700BF8800002008
:081198008C00002084000020FF
:0211A000704796
:1012E00082B0CDF800E001AB1E2119705A1C010A32
:1012F00011709A1C00F0FF011170FFF7FFFE01AAA8
:10130000064909780123C8B211460322FFF74AFFB4
:1013100000F076F8DDF800E002B0704782000020AF
:1010FC0082B0CDF800E040F20004ADF80440064C9C
:10110C002468A047BDF9041041EA000000B2DDF8E4
:0C111C0000E002B0704700BF8800002017
:100EE80081B0CDF800E004480068FFF751FD00200C
:0C0EF800DDF800E001B070472C00002085
:1009980081B0CDF800E04FF0000224490968884290
:1009A80007D123490B6823490A6823490A601A4674
:1009B80025E022490968884207D121490B68214965
:1009C8000A681D490A601A4619E01F4909688842E1
:1009D80007D11E490B681E490A6817490A6019465B
:1009E8000CE01C490968884207D11B490B681B4960
:1009F8000A6811490A60194600E011460A46184972
:100A08000A60017801F00101C9B259B914490968AD
:100A180039B122B90520084C2468A04702E0521ECB
:100A2800FFE7EEE7DDF800E001B070472C0000209A
:100A380030000020940000209000002024000020B6
:100A480034000020980000202800002038000020F2
:100A58009C0000203C00002040000020A000002056
:040A68004400002026
:10052C0082B0CDF800E08DF8040000F0C1F8084965
:10053C00097801F02001C9B201B9F8E79DF804105F
:10054C0001F0FF0203490A70DDF800E002B07047C9
:08055C0005240F4000240F40AC
:1004F40082B0CDF800E08DF80400FFF7D5FE08497E
:10050400097801F02001C9B201B9F8E79DF8041097
:1005140001F0FF0203490A70DDF800E002B0704701
:0805240005280F4000280F40DC
:1002AC0081B00448007800F07F010248017001B071
:0802BC00704700BF03280F404A
:1004E400024A117860F300011170704790130840BC
:10056400024A117860F345111170704784130840F2
:10059400024A117860F3C301117070478013084058
:10058400024A117860F30411117070478313084014
:10057400024A117860F386111170704783130840A2
:10049400024A117860F30411117070478013084008
:1004A400024A117860F30411117070478B130840ED
:1004D400024A117860F300011170704783130840D9
:1004C400024A117860F3451111707047881308408F
:1004B400024A117860F304111170704788130840E0
:1005A400024A117860F3000111707047811308400A
:10064400024A117860F3C711117070478013084093
:10063400024A117860F34101117070479013084029
:10062400024A117860F3C7111170704784130840AF
:10067400024A117860F34511117070478E130840D7
:10066400024A117860F30411117070478313084033
:10065400024A117860F386111170704783130840C1
:10061400024A117860F30411117070478013084086
:1005D400024A117860F38201117070478013084059
:1005C400024A117860F38201117070478913084060
:1005B400024A117860F3451111707047881308409E
:10060400024A117860F3041111707047881308408E
:1005F400024A117860F300011170704781130840BA
:1005E400024A117860F3C7111170704780130840F4
:100C8C0081B0CDF800E004480068FFF77FFE00203B
:0C0C9C00DDF800E001B0704724000020EB
:100C700081B0CDF800E004480068FFF78DFE002049
:0C0C8000DDF800E001B070472800002003
:100C540081B0CDF800E004480068FFF79BFE002057
:0C0C6400DDF800E001B070473C0000200B
:100CE00081B0CDF800E0FFF7E9FC0648007800F09D
:100CF0000100C0B200B9F8E703480078DDF800E071
:0C0D000001B0704705240F4000240F4094
:100CC40081B00548007800F00100C0B208B10120ED
:0C0CD40000E0002001B0704705240F4034
:100CA80081B00548007800F04000C0B208B10120CA
:0C0CB80000E0002001B0704705240F4050
:100D0C0081B0CDF800E0FFF7CBFA0648007800F090
:100D1C000100C0B200B9F8E703480078DDF800E044
:0C0D2C0001B0704705280F4000280F4060
:100E080081B00548007800F00100C0B208B10120A7
:0C0E180000E0002001B0704705280F40EA
:100DEC0081B00548007800F04000C0B208B1012085
:0C0DFC0000E0002001B0704705280F4007
:1011A40082B0CDF800E040F20004ADF80440054CF4
:1011B4002468A047BDF90440044320B2DDF800E0F0
:0811C40002B070478C0000200E
:100E240081B0CDF800E0064C246808B413460A46A5
:100E34002146FFF77FFC01B0DDF800E001B0704708
:040E44002C0000205E
:1007380082B0CDF800E0029E40F200074FF00005BD
:100748004E4C2468A14208D14D4CD4F800804D4C41
:1007580025684D4C2560454628E04C4C2468A1424C
:1007680008D14B4CD4F800804A4C2568464C25608B
:1007780045461BE0484C2468A14208D1474CD4F8B0
:100788000080474C2568404C256044460DE0454CA8
:100798002468A14208D1444CD4F80080434C256811
:1007A800394C2560444600E02C462546404C2560DF
:1007B80001F2080544002C70C5240C70B8B20F462D
:1007C8001D46A84231D23A4CD4F800803346394607
:1007D80017462A460C7804F08004E4B27CB1344C05
:1007E80024685CB1B8F1000F04D10420264C2468B9
:1007F800A0473FE0A8F10105A846FFE7EAE70C7823
:1008080004F00804E4B23CB901F208053C18247865
:100818002C70401C80B203E001911146019A07E058
:1008280015463A460F461E46CBE73A462946334612
:100838001F4C2568147804F08004E4B25CB11C4CA9
:1008480024683CB125B904200F4C2468A04711E066
:100858006D1EFFE7EEE733B1C324147002F20805FA
:1008680000242C7001E045241470884201D2012034
:1008780000E00020DDF800E002B070472C00002006
:100888003000002094000020900000202400002068
:1008980034000020980000202800002038000020A4
:1008A8009C0000203C00002040000020A000002008
:0408B80044000020D8
:100E6C0081B0CDF800E0064C246808B413460A465D
:100E7C002146FFF75BFC01B0DDF800E001B07047E4
:040E8C00240000201E
:100E480081B0CDF800E0064C246808B413460A4681
:100E58002146FFF76DFC01B0DDF800E001B07047F6
:040E6800280000203E
:100D5C0081B0CDF800E0064C246808B413460A466E
:100D6C002146FFF7E3FC01B0DDF800E001B070476D
:040D7C003C00002017
:10146C0083B0CDF800E0024610460D228DF808201E
:10147C000A228DF809201FE0FFF704FE23E0027812
:10148C002AB10190FFF7FEFD0198401CF7E71AE026
:10149C0002782AB10190FFF7F5FD0198401CF7E79F
:1014AC0002AA1046FFF7EEFD0DF109021046FFF7F8
:1014BC00E9FD08E0062007E00029DDD00129DED097
:1014CC000229E5D0F6E70020DDF800E003B0704714
:1010900081B0CDF800E00178CCB2E0B2034C246816
:1010A000A0470020DDF800E001B0704748000020B4
:1014F00081B0CDF800E0FFF79DFE1249088000B2F0
:101500001149FFF70DFF11480121FFF7AFFF02213D
:101510000D48FFF7ABFFFFF73BFF0D49088000B216
:101520000949FFF7FDFE0B480121FFF79FFF02214C
:101530000548FFF79BFFFFF757FFDDF800E001B01C
:10154000704700BF4C0000204E000020100000201B
:081550008000002018000020BB
:1012340082B0CDF800E001A920200870FFF75CFF20
:1012440001A91848007800230122FFF7A9FF00F044
:10125400D5F80DF105011348007801230222FFF7A8
:1012640039FF0DF105021078010289B2501C007893
:10127400014389B240F6FF7001EA000080B200EE3B
:10128400900AF8EE600A084800EE100A20EE800A80
:10129400BCEE400A10EE100A80B2DDF800E002B0A5
:0C12A400704700BF820000200000B43D35
:1010D80082B0CDF800E040F20004ADF80440044CC2
:1010E8002468A047BDF90400DDF800E002B07047AD
:0410F8008400002050
:100D380081B0CDF800E0064C246808B413460A4692
:100D48002146FFF78FFE01B0DDF800E001B07047E3
:040D58002C0000204B
:100A6C0082B0CDF800E0029C40F2000601274FF066
:100A7C0000055F4C2468A14208D15E4CD4F800807C
:100A8C005D4C25685D4C2560454628E05C4C24682F
:100A9C00A14208D15B4CD4F800805B4C2568574CC4
:100AAC00256045461BE0594C2468A14208D1584C9E
:100ABC00D4F80080574C2568504C256044460DE016
:100ACC00554C2468A14208D1544CD4F80080544CA5
:100ADC0025684A4C2560444600E02C462546514C7E
:100AEC00256001F208054400A4B244F001042C7006
:100AFC000846B5B21E46FBB24A4C216801913146FC
:100B0C00AEB2019D047804F08004E4B25CB1454CB3
:100B1C0024683CB125B90320384C2468A04762E016
:100B2C006D1EFFE7EEE7047804F00804E4B28CB91C
:100B3C00B41CA4B28C420DD2951900F2080424788E
:100B4C002C70751CADB223B1002400239DB2E3B20E
:100B5C00FFE746E0047804F00804E4B2002C38D136
:100B6C00022902D04024047002E00BB94024047026
:100B7C00951900F2080424782C70741C3BB10023E6
:100B8C000025022901D10E46B6E7A9B200E0A1B2B8
:100B9C00244C2368ADF8041011460246BDF804003D
:100BAC00147804F08004E4B25CB11E4C24683CB1AF
:100BBC0023B90320114C2468A04714E05B1EFFE707
:100BCC00EEE7C32414700D1802F2080424782C707C
:100BDC0009E0C3240470951900F2080424782C70E1
:100BEC0001E00E4688E7DDF800E002B0704700BF78
:100BFC002C000020300000209400002090000020E9
:100C0C002400002034000020980000202800002040
:100C1C00380000209C0000203C00002040000020F8
:080C2C00A0000020440000209C
:100D800081B0CDF800E0064C246808B413460A464A
:100D90002146FFF76BFE01B0DDF800E001B07047BF
:040DA000240000200B
:100DC80081B0CDF800E0064C246808B413460A4602
:100DD8002146FFF747FE01B0DDF800E001B070479B
:040DE80028000020BF
:100DA40081B0CDF800E0064C246808B413460A4626
:100DB4002146FFF759FE01B0DDF800E001B07047AD
:040DC4003C000020CF
:1013200081B0CDF800E00E46002183B2002805DA36
:101330000121404280B280B28FB201E098B28FB2F8
:101340003146FFF7F1FE06213446B8B2002908D92C
:1013500063184A1E92B2A21812781A70491E89B2F6
:10136000F4E72022227070B1002081B2204642189A
:101370001278202A02D1491C89B2F8E74A1E92B29B
:0E13800083182D221A70DDF800E001B07047CE
:1011280081B00A4681B200208DB21146052805D249
:101138000B1820221A70401CC0B2F7E70B180022C7
:101148001A70401EC0B20C180A23B5FBF3F203FB59
:10115800125292B2303222700A22B5FBF2F292B2E7
:1011680095B202B902E0401EC0B2ECE701B0704788
:1013900082B0CDF800E001A92A200870FFF7AEFE68
:1013A00001A91048007800230122FFF7FBFE00F09E
:1013B00027F80DF105010B48007801230222FFF701
:1013C0008BFE0DF105021078010289B2501C0078E5
:1013D000014389B240F6FF7001EA0000DDF800E049
:0813E00002B0704782000020FA
:1013E80042F2FE37C0F2F40700BF00BF7F1EFDD1F6
:0813F80000BF00BF00BF7047F9
:1016A00081B0CDF800E01F4B1F4A204C2048006855
:1016B00040F002011E480160012A08D0032A06D02A
:1016C000042A04D0102A02D0302A00D002E019489F
:1016D000026002E0012117480160C4F3C00216490C
:1016E000086862F3C3000860C4F380021249086806
:1016F00062F382000860C4F340020F49086862F395
:1017000041000860C4F300020B49086862F300005E
:101710000860FFF775FE09480360DDF800E001B0DE
:10172000704700BFE0010000010000000000000061
:1017300008E000E00401084008A400400801084057
:1017400081B004490448016004490548016001B0C2
:10175000704700BF80BB0000B00000200000000008
:04176000B4000020B1
:0816200081B0FEE701B0704744
:1016280081B04EF68850CEF20000016841F4700196
:10163800016000BF00BF00BF00BFF1EE100A40F418
:0A1648004000E1EE100A01B0704707
:1016540081B0DFF81000DFF810100860D0F800D077
:1016640000F004B800000B0008ED00E000BF01B07A
:021674007047BD
:1018EC0000B5DFF814B0DFF814A0DFF814C0FFF770
:1018FC00EFFD00BD704700BF000000204800002035
:04190C0094180B0020
:10196C0000B5DFF810B0DFF810A0FFF71FFE00BDC8
:0C197C00704700BF00000020C8000020E1
:101764008500000084000000FFFFFFFF0000000070
:101774000000000000000000000000000000000065
:101784000000000000000000000000000000000055
:101794000000000000100000001000000000000025
:1017A4000000000000000000000000000000000035
:1017B4000000000000000000000000000000000025
:0817C40000000000000000001D
:1017CC001000000007000000FFFFFFFF03000000F7
:1017DC0000000000000000000000000000000000FD
:1017EC0000000000000000000000000000000000ED
:1017FC0000000000001000000010000000000000BD
:10180C0000000000000000000000000000000000CC
:10181C0000000000000000000000000000000000BC
:08182C000000000000000000B4
:10183400E5040B0065050B0095050B0085050B0001
:1018440075050B0095040B00A5040B00D5040B00D3
:10185400C5040B00B5040B00A5050B0045060B00E1
:10186400FFFFFFFFFFFFFFFFFFFFFFFFFFFFFFFF84
:10187400FFFFFFFFFFFFFFFFFFFFFFFFFFFFFFFF74
:10188400FFFFFFFFFFFFFFFFFFFFFFFFFFFFFFFF64
:10189400496E697469616C697A652E2E2E2E2E004C
:0818A400416E676C65203A00FB
:0C18AC004D61676E6574696373203A003B
:0418B80000440040A8
:0418BC0000480040A0
:0418C00000400040A4
:0418C4000000000020
:0418C800000000001C
:0418CC000000000018
:0418D000004C004088
:0418D4000000000010
:0418D800000000000C
:0C18DC00E90E0B00250E0B00390D0B006F
:0418E80001000000FB
:00000001FF
