:10000000FCFF0020E91D0000A11D0000A11D000053
:10001000A11D0000A11D0000A11D0000A11D0000E8
:10002000A11D0000A11D0000A11D0000A11D0000D8
:10003000A11D0000A11D0000A11D0000A11D0000C8
:10004000A11D0000A11D0000A11D0000A11D0000B8
:10005000A11D0000A11D0000A11D0000A11D0000A8
:10006000A11D0000A11D0000A11D0000A11D000098
:10007000A11D0000A11D0000A11D0000A11D000088
:10008000A11D0000A11D0000A11D0000A11D000078
:10009000A11D0000A11D0000A11D0000A11D000068
:1000A000A11D0000A11D0000A11D0000A11D000058
:1000B000A11D0000A11D0000A11D0000A11D000048
:1000C000A11D0000A11D0000A11D0000A11D000038
:1000D000A11D0000A11D0000A11D0000A11D000028
:1000E000A11D0000A11D0000A11D0000A11D000018
:1000F000A11D0000A11D0000A11D0000A11D000008
:101DE80081B000F011F8FFF7DBFF00F051FBFFF7BF
:101DF800EDFF00F0FFFAFFF74BFFFFF75FFFFFF77C
:061E08008DFFFCE7FEE780
:101D8C0081B01CF8019B0BF8019BBBEB0A0FF8D13F
:041D9C0001B07047DB
:101C5C0081B04FF000094FF0000CBDEB0A0F04DC13
:101C6C00BDEB0B0F01DBD446EA464BF8049BBBEBF8
:101C7C000A0FFAD1BCEB0A0F05DDE246D9F800B029
:0A1C8C000BF1040BF1E701B0704703
:101C980081B0CDF800E0084801460020FFF7B2FF08
:101CA80042F280510120FFF78FFFFFF735FFDDF883
:0C1CB80000E001B0704700BF1C1B0000E2
:101C0C0081B0CDF800E009E00846FFF79FFE0AE03E
:101C1C000846FFF75BFE06E0012004E00028F3D045
:0E1C2C000128F5D0F8E7DDF800E001B07047C0
:1019580081B0CDF800E0011D0A680168084611460B
:10196800034AFFF74FFE0020DDF800E001B07047A2
:041978000C2100003E
:10160C0081B0CDF800E013460A4601460348FFF7C7
:10161C00C9FCDDF800E001B0704700BF00240040B9
:100FB00087B0CDF800E08446059106921846FFF709
:100FC00075FE6046FFF76AFE06996046FFF710FF60
:100FD000BCF8005040F6017445EA0404ACF8004047
:100FE00001AC2046FFF7ACFE069C402C05D1059DC8
:100FF000019CB4FBF5F4A0B209E0069C802C05D15D
:10100000059D049CB4FBF5F4A0B200E000200CF1B7
:10101000060420801D4CA44506D11D4D1D4C2560A5
:101020001D4D1E4C25601CE01D4CA44506D11D4DD8
:10103000184C25601C4D194C256012E01B4CA44532
:1010400006D11B4D134C25601A4D144C256008E049
:10105000194CA44505D1194D0E4C2560184D0F4C67
:10106000256040F201016046FFF7E0FE6046FFF7B1
:10107000D5FE03216046FFF7C7FE02216046FFF759
:1010800005FEDDF800E007B0704700BF002000401B
:101090009116000080000020391700008400002015
:1010A00000240040151700005116000000280040E1
:1010B0005D170000E9150000002C0040B917000082
:0410C0002D160000E9
:100D400082B0CDF800E004462849096801F4E0616A
:100D5000090A08462549096801F0E061090E0A46BA
:100D6000214601911146FFF7ADFA019908601F492C
:100D7000096801F07001090908461C49096801F475
:100D8000E001090D0A4604F2080101911146FFF73E
:100D900099FA019908601549096801F0700109097B
:100DA00008461249096801F0E041090F0A4604F2B9
:100DB0000C0101911146FFF785FA019908600B4972
:100DC000096801F0070108460849096801F4E021B3
:100DD000090C0A46211D01911146FFF773FA01998A
:100DE0000860DDF800E002B0704700BF0804014071
:1002C40081B0CDF800E002460846FFF72DFFC3B227
:1002D40071E0424A126802F00102D2B140F2010018
:1002E400FFF70CFF3D4A126802F001028AB13C4A52
:1002F400126802F400422AB14FF4FA3292FBF3F28C
:10030400104666E048F20002B2FBF3F292B290B2F9
:100314005FE0344A1268B2FBF3F2104659E02F4A08
:10032400126802F00202D2B140F20200FFF7E6FEC8
:100334002A4A126802F002028AB1294A126802F4B7
:1003440000422AB14FF4FA3292FBF3F2104640E035
:1003540048F20002B2FBF3F292B290B239E0224AC0
:100364001268B2FBF3F2104633E0204A1268B2FB83
:10037400F3F210462DE01A4A126802F400422AB140
:100384004FF4FA3292FBF3F2104622E048F20002F4
:10039400B2FBF3F292B290B21BE0FFF7DBFEB0FBCC
:1003A400F3F2104615E0124A1268B2FBF3F210465B
:1003B4000FE000200DE0002A3FF48BAF052AAED0F9
:1003C400012AD2D0022AD6D0032AE6D0042AEAD0BF
:1003D400EFE7DDF800E001B0704700BF48040140DA
:1003E40030040140A0000020A400002038000020B8
:0403F4003C000020A9
:10012C0081B0012109B2814009B208B201B0704717
:1001000081B0074A07490A600749096841EA0002C5
:1001100005490A60012203490A6001B0704700BF27
:0C0120005A690000000401405004014036
:1001580082B01748006800F4E02114E015480190C7
:1001680023E01548019020E0144801901DE0144850
:1001780001901AE01348019017E01348019014E029
:100188000020019011E00029E8D0B1F5803FE8D0C7
:10019800B1F5003FE8D0B1F5403FE8D0B1F5802F88
:1001A800E8D0B1F5A02FE8D0EAE7019802B070478F
:1001B8000404014060E31600C0C62D00808D5B007A
:0C01C800001BB70000366E01006CDC026A
:100CAC0081B0CDF800E040F2000A814609F1D8018C
:100CBC0009788A453AD20C210AFB01F109EB0101B2
:100CCC008B460BF1080109781F2915D10BF108018E
:100CDC000978CCB20BF1060109888BB20BF1040137
:100CEC0009888AB2DBF80010084691B2002210B4D1
:100CFC00FFF7D4FB01B014E00BF108010978CCB27A
:100D0C000BF1060109888BB20BF1040109888AB238
:100D1C00DBF80010084691B2FF2210B4FFF7BEFBBF
:100D2C0001B00AF1010A5FFA8AFABFE7DDF800E0C8
:040D3C0001B070474B
:1004A80083B0CDF800E08DB20146D0B2BDF90C2082
:1004B80001F0010414B12F02BFB200E0AFB28F4CBB
:1004C8000C1B640965018D4C6419A0468C4CA04234
:1004D80007D108F10406FD43ADB234882C403480BE
:1004E80007E0884CA04204D108F104052C883C435D
:1004F8002C8040F2010403EA0404A4B23CB108F1E0
:100508000606FD43ADB234882C4034800AE040F240
:10051800020403EA0404A4B224B108F106052C88F5
:100528003C432C8040F2040403EA0404A4B23CB126
:1005380008F10806FD43ADB234882C4034800AE047
:1005480040F2080403EA0404A4B224B108F108053F
:100558002C883C432C8040F2100403EA0404A4B223
:100568003CB108F11806FD43ADB234882C40348004
:100578000AE040F2200403EA0404A4B224B108F11A
:1005880018052C883C432C8040F2400403EA0404FC
:10059800A4B23CB108F11A06FD43ADB234882C4030
:1005A80034800AE040F2800403EA0404A4B224B1CF
:1005B80008F11A052C883C432C8003F48074A4B2FB
:1005C8007CB908F10A06FD43ADB234882C4034806A
:1005D80008F10C06FD43ADB234882C40348000206D
:1005E80087E01F2A01DD012083E0FFF7A3FD00203B
:1005F800B9B2C7B24046102F80F07A8021FA07F4CA
:10060800A4B204F00104A4B2002C00F06E8000F241
:100618000A06CD43ADB234882C40348000F20C0673
:10062800CD43ADB234882C40348003F48064A4B246
:100638002CB1ADF806100024ADF808400DE003F425
:100648000064A4B22CB10024ADF80640ADF808103F
:1006580003E0ADF80610ADF8081000F20A06358878
:10066800BDF8064045EA0404348000F20C063588DB
:10067800BDF8084045EA04043480234C041B64098F
:10068800ADF80440214CA24218D0BDF80440E40063
:10069800A4B265001E4C65197C08E4B264002E19EA
:1006A80007F00104E4B2E5002DB240F2FF04AC40CB
:1006B800A4B2E543ADB234882C403480BDF8044080
:1006C800E400A4B26500124C65197C08E4B2640029
:1006D8002E1907F00104E4B2E5002DB294B204FA31
:1006E80005F5ADB234882C4334807F1CFFB282E715
:1006F8000020DDF800E003B0704700BF004C004068
:100708000000000001000000004C00400000000054
:040718000850004045
:10013C0081B042F6525103480180022102480180ED
:0C014C0001B0704700500040025000401D
:100C9C0081B00122018862F30001018001B070472C
:100DF00081B003884FF63F7203EA02020280028844
:080E00000A43028001B07047B3
:100E2C0081B08BB2028863F30412028001B0704768
:100E1C0081B00022018862F30001018001B07047AB
:100E080081B000F22C04CB439BB222881A40228086
:040E180001B070476E
:100C8C0081B000F22A031A880A431A8001B0704717
:1018D80081B0CDF800E0011D0A680168084611468C
:1018E800034AFFF78FFE0020DDF800E001B07047E3
:0418F8000C210000BF
:101BD00081B0CDF800E00DE00846FFF799FE10E077
:101BE0000846FFF7A7FE0CE00846FFF763FE08E093
:101BF000012006E00028EFD00128F1D01028F3D012
:0A1C0000F6E7DDF800E001B07047E0
:1019100081B0CDF800E0FFF7CDFE044A04490A602B
:101920000020DDF800E001B0704700BF9D17000007
:041930004000002053
:1016B40081B0CDF800E084460B4A0C490A600C4A1C
:1016C4000C490A600C4A0D490A600D4A0D490A602A
:1016D4000D48FFF7E9FA61460C48FFF721FEDDF8F3
:1016E40000E001B0704700BF9D170000A800002073
:1016F400FFFFFFFFAC000020FFFFFFFFB000002052
:10170400FFFFFFFFB400002030200000001800405D
:1013240081B0CDF800E007460C463846FFF74CFC88
:1013340040F280013846FFF73BFC40F2000138469A
:10134400FFF728FC40F200013846FFF745FC40F265
:1013540000013846FFF772FC40F200013846FFF7FF
:101364005BFC40F200013846FFF746FC2146384654
:10137400FFF762FD3846FFF70FFEDDF800E001B02D
:021384007047B0
:0E0BCC0081B0018841F00101018001B0704745
:100BB40081B003884FF63F7203EA02020280028882
:080BC4000A43028001B07047F2
:100B980081B031B903884DF6FF7203EA0202028080
:0C0BA80002E002880A43028001B070479E
:100BDC0081B0B1F5006F03D102880A43028005E0B1
:100BEC0003884FF2FF7203EA0202028001B07047E1
:100C400081B019E0038847F6FF7203EA02020280CE
:100C500019E0028842F40042028002880A430280BE
:100C600011E0028842F40042028003884BF6FF72D2
:100C700003EA0202028006E00029E3D0B1F5804FCA
:0A0C8000E7D00029EDD001B0704765
:100C1C0081B0B1F5807F04D1028842F480720280E9
:100C2C0005E003884FF6FF6203EA0202028001B07E
:020C3C007047FF
:100BFC0081B0B1F5805F03D102880A43028005E021
:100C0C0003884EF6FF7203EA0202028001B07047BD
:100E3C0088B0CDF800E005460E4604AA1046FFF730
:100E4C0079FF04AA11462846FFF762FC00EE900ACF
:100E5C00F8EE600A00EE106AB8EE400A80EE800AE6
:100E6C00B0EE401A01AA1046FFF7C0FADDED010AF8
:100E7C00FCEE600A10EE902A92B291B2414A00EE5A
:100E8C00902A20EE200ABCEE400A10EE100A80B226
:100E9C0005F2080423884FF6FE7203EA0202228050
:100EAC0010292ED905F208031A8842F001021A8083
:100EBC00B3EE000A81EE000ABCEE400A10EE102AD6
:100ECC0092B2ADF80820B3EE000AC1EE000AB3EE00
:100EDC00000A81EE000ABCEE400A10EE102A92B213
:100EEC0000EE102AB8EE400A70EEC00AB3EE000A0B
:100EFC0020EE800ABCEE400A10EE102A92B2ADF839
:100F0C000A2020B90022ADF80C20284616E0012456
:100F1C002946242C11D263001B4AD2181288904205
:100F2C0008D2621E12B25300184AD2181288ADF8B9
:100F3C000C2002E0641CE4B2EBE70846831D00229F
:100F4C001A80841D2388BDF8082043EA02022280FF
:100F5C0000F208031A8802F001021A8000F2080459
:100F6C00BDF80C2013029BB2BDF80A20120192B2FC
:100F7C0013439BB222881A432280DDF800E008B0AC
:100F8C00704700BF00401C466C2300002423000067
:10071C0081B0028802F0C00292B2920992B290B2F9
:10072C000AB900200EE0012802D10A68104609E03F
:10073C00022802D0032800D004E001F20C02126857
:08074C001046FFE701B0704701
:1003F80082B08DED010A9DED010AB5EEC00AF1EE5D
:1004080010FA0ADBDDED010AB7EE000AF4EEC00AC5
:10041800F1EE10FA01DA012100E0002189B9DDEDE1
:10042800010ABFEE000AF4EEC00AF1EE10FA07DD89
:100438009DED010AB5EEC00AF1EE10FA00DC00E00D
:1004480008E04FF0000100EE101A00ED000A9DEDE3
:10045800010A23E001A90968C90D01F0FF017F39EC
:1004680089B2182908D99DED010A00ED000A4FF05C
:10047800000100EE101A11E09DED010ABDEE400AE0
:1004880010EE101A00EE101AB8EEC00A00ED000ABD
:1004980050ED000A9DED010A30EE600A02B0704787
:100F9C0081B002884FF6FE7102EA0101018001B0B6
:020FAC0070478C
:1019340081B0CDF800E0FFF7E7FD044A04490A60EE
:101944000020DDF800E001B0704700BF751600000C
:04195400400000202F
:10150C0081B0CDF800E084460B4A0C490A600C4AC5
:10151C000C490A600C4A0D490A600D4A0D490A60D3
:10152C000D48FFF7BDFB61460C48FFF7F5FEDDF8F3
:10153C0000E001B0704700BF75160000A800002045
:10154C00FFFFFFFFAC000020FFFFFFFFB0000020FB
:10155C00FFFFFFFFB4000020541F000000140040E8
:1018B40081B0CDF800E0FFF757FE044A04490A60FE
:1018C4000020DDF800E001B0704700BFCD15000036
:0418D40040000020B0
:10156C0081B0CDF800E084460B4A0C490A600C4A65
:10157C000C490A600C4A0D490A600D4A0D490A6073
:10158C000D48FFF78DFB61460C48FFF7C5FEDDF8F3
:10159C0000E001B0704700BFCD150000A80000208E
:1015AC00FFFFFFFFAC000020FFFFFFFFB00000209B
:1015BC00FFFFFFFFB4000020E821000000100040F6
:101B200081B044F67D77C0F2120700BF7F1EFDD161
:0C1B300000BF00BF00BF00BF01B0704745
:101CC40081B0CDF800E00C2212491348FFF76CFFF5
:101CD40041F2000140F2000040EA010189B240F6FD
:101CE4000000014389B240F20020014389B240F26E
:101CF4000010014389B240F2800041EA0000FFF77E
:101D0400DDFE06480221FFF717FFDDF800E001B011
:101D1400704700BFF4230000C42200001400002018
:101BAC0081B0CDF800E00446054B1A700846FFF7EB
:101BBC0059FE2046FFF7A2FEDDF800E001B07047A9
:041BCC0035000020C0
:1018700081B0026803490A60011D0A6802490A60D2
:0C18800001B07047780000207C000020C0
:0619080081B001B0704740
:101AC00082B0CDF800E001AB1E2119705A1C010A4A
:101AD00011709A1C00F0FF011170FFF70FFF01AAAF
:101AE000064909780123C8B211460322FFF7CEFE4A
:101AF00000F016F8DDF800E002B070473500002075
:0C18FC0081B040F2000000B201B0704763
:10188C0082B0CDF800E040F20004ADF80440054C05
:10189C002468A047BDF90440044320B2DDF800E001
:0818AC0002B070477800002033
:1017380081B0CDF800E008B413460A46C1B20448A7
:10174800FFF71EFE01B0DDF800E001B0704700BFF2
:04175800002000402D
:1013880087B0CDF800E08DF8041001469DF8040000
:1013980005920693079C07944C4CA1420AD14C4DE8
:1013A8002C6803942C46246804944A4C25684A4CBB
:1013B800256028E0494CA1420AD1494D2C68039484
:1013C8002C4624680494474C2568434C25601AE051
:1013D800454CA1420AD1454D2C6803942C462468FB
:1013E8000494434C25683C4C25600CE0414CA142D8
:1013F80009D1414D2C6803942C46246804943F4C31
:101408002568354C256001910291C1B20298FFF719
:101418001DFA01993A4C247854B9019108460121E2
:10142800FFF7CAFA019908B101204BE00D461FE009
:1014380001250C8865F304140C8008460588C5F35B
:1014480080046CB1049C54B1039C2CB90720224C35
:101458002468A047012035E0039C641E0394EDE74F
:10146800048844F0020404800025254C25700546B4
:1014780000262A463146069CA14214D2059C6418CF
:10148800247801920291E1B21046FFF70DFA029911
:10149800019A20B11046FFF7F5F9012012E04C1C23
:1014A80026463146E7E7079C012C07D11046FFF78F
:1014B800E9F9002801D0012004E002E00125104CE0
:1014C80025700020DDF800E007B0704700200040DC
:1014D800240000208C000020880000200024004008
:1014E8002800002090000020002800402C00002048
:1014F80094000020002C00403000002098000020BC
:04150800340000208B
:1007F40081B00249087001B0704700BF60880942A7
:1007E40081B00249087001B0704700BF58880942BF
:1007D40081B00249087001B0704700BF40880942E7
:1007C40081B00249087001B0704700BF54800942EB
:1008140081B00249087001B0704700BF5C80094292
:1008040081B00249087001B0704700BF58800942A6
:1007B40081B00249087001B0704700BF7C800942D3
:1007640081B00249087001B0704700BF708009422F
:1007540081B00249087001B0704700BF4884094263
:1007840081B00249087001B0704700BF4C8409422F
:1007940081B00249087001B0704700BF74880942F3
:1007A40081B00249087001B0704700BF70880942E7
:1007740081B00249087001B0704700BF6C8409421F
:100B480081B00249087001B0704700BF7C88094233
:100B380081B00249087001B0704700BF4888094277
:100B280081B00249087001B0704700BF5480094283
:100B580081B00249087001B0704700BF5C8009424B
:100B880081B00249087001B0704700BF588009421F
:100B780081B00249087001B0704700BF788009420F
:100B680081B00249087001B0704700BF7888094217
:100B180081B00249087001B0704700BF688009427F
:1008440081B00249087001B0704700BF6C80094252
:1008340081B00249087001B0704700BF7488094252
:1008240081B00249087001B0704700BF7088094266
:1008540081B000F2140212888A420FD000F216020C
:1008640012888A420AD000F2180212888A4205D0FD
:1008740000F21A0212888A4200D000E002E000F27C
:080884002002118001B0704751
:1009C00085B0CDF800E0CCB20146464A91420AD14A
:1009D000454B1A6803921A4612680492434A1368F8
:1009E000434A136028E0434A91420AD1424B1A68B5
:1009F00003921A4612680492404A13683C4A1360F4
:100A00001AE03F4A91420AD13E4B1A6803921A46B5
:100A1000126804923C4A1368354A13600CE03B4A62
:100A2000914209D13A4B1A6803921A46126804920D
:100A3000384A13682E4A13608DF804400291084624
:100A4000FFF7D4FB02999DF8044008B1012044E06F
:100A5000E3B20A8863F304120A800A8842F00202B1
:100A60000A80012C1CD1084600F22C021388C3F323
:100A700040026AB9049A52B1039A2AB906201C4C62
:100A80002468A047012028E0039A521E0392EBE756
:100A900000F22C040023228863F3410222801BE031
:100AA000084600F22C021388C3F300026AB9049AC4
:100AB00052B1039A2AB906200D4C2468A0470120A0
:100AC0000BE0039A521E0392EBE700F22C04002382
:100AD000228863F3000222800020DDF800E005B0E8
:100AE000704700BF00200040240000208C00002040
:100AF00088000020002400402800002090000020F2
:100B0000002800402C00002094000020002C004011
:080B10003000002098000020D5
:1001EC0083B0CDF800E0274988420AD1264A11682D
:1001FC00019111460968029124490A6824490A6050
:10020C0028E0244988420AD1234A116801911146F9
:10021C000968029121490A681D490A601AE02049BF
:10022C0088420AD11F4A116801911146096802914E
:10023C001D490A6816490A600CE01C49884209D11C
:10024C001B4A1168019111460968029119490A6803
:10025C000F490A6003461846FFF7B6FF68B90299C2
:10026C0051B1019929B90520094C2468A0470120F6
:10027C0004E00199491E0191EDE70020DDF800E052
:10028C0003B0704700200040240000208C000020A8
:10029C00880000200024004028000020900000204E
:1002AC00002800402C00002094000020002C00406E
:0802BC00300000209800002032
:1001D40081B000F208010A88C2F3001181F0010124
:0801E400C9B2C8B201B07047B6
:1008B00083B0CDF800E0354A90420AD1344B1A6833
:1008C00001921A4612680292324A1368324A136041
:1008D00028E0324A90420AD1314B1A6801921A46F6
:1008E000126802922F4A13682B4A13601AE02E4AAC
:1008F00090420AD12D4B1A6801921A461268029250
:100900002B4A1368244A13600CE02A4A904209D10A
:10091000294B1A6801921A4612680292274A1368F4
:100920001D4A136000F22C021388C3F3401232B147
:1009300000F22C040023228863F34512228000F287
:100940000E02118000F22C021388C3F340026AB930
:10095000029A52B1019A2AB904200F4C2468A04788
:1009600001200FE0019A521E0192EBE700F22C04E5
:100970000023228863F34102228000F22C021388B4
:10098000C3F34010DDF800E003B0704700200040E2
:10099000240000208C00002088000020002400405B
:1009A0002800002090000020002800402C0000209B
:1009B00094000020002C004030000020980000200F
:10088C0081B0CDF800E00122018862F38201018081
:10089C00FFF7A6FC08B1012000E00020DDF800E025
:0408AC0001B07047E0
:1016500081B0CDF800E008B413460A46C1B2044890
:10166000FFF792FE01B0DDF800E001B0704700BF67
:041670000024004012
:1015E80081B0CDF800E008B413460A46C1B20448F9
:1015F800FFF7C6FE01B0DDF800E001B0704700BF9C
:041608000028004076
:10162C0081B0CDF800E008B413460A46C1B20448B4
:10163C00FFF7A4FE01B0DDF800E001B0704700BF79
:04164C00002C00402E
:101B3C0083B0CDF800E0024610460D228DF8082047
:101B4C000A228DF809201FE0FFF77CFE23E00278C3
:101B5C002AB10190FFF776FE0198401CF7E71AE0D6
:101B6C0002782AB10190FFF76DFE0198401CF7E74F
:101B7C0002AA1046FFF766FE0DF109021046FFF7A8
:101B8C0061FE08E0062007E00029DDD00129DED047
:101B9C000229E5D0F6E70020DDF800E003B070473D
:1018500081B0CDF800E00178CCB2A0B2034C24688E
:10186000A0470020DDF800E001B0704740000020F4
:1015CC0081B0CDF800E081B20348FFF791FEDDF861
:0C15DC0000E001B0704700BF00100040AC
:1012FC0081B0ADF800100146BDF8000001F20A0201
:10130C00128802F0010292B202B1F7E701F20E026A
:06131C00108001B07047D3
:1016740081B0CDF800E081B20348FFF73DFEDDF80C
:0C16840000E001B0704700BF00140040FF
:10179C0081B0CDF800E081B20348FFF7A9FDDDF878
:0C17AC0000E001B0704700BF00180040D2
:1017800081B0CDF800E081B20348FFF7B7FDDDF886
:0C17900000E001B0704700BF001C0040EA
:101D240081B0CDF800E0FFF727FE1249088000B229
:101D34001149FFF75FFE11480121FFF7FDFE022163
:101D44000D48FFF7F9FEFFF78DFE0D49088000B23C
:101D54000949FFF74FFE0B480121FFF7EDFE022171
:101D64000548FFF7E9FEFFF7C9FEDDF800E001B022
:101D7400704700BF3600002044000020000000200F
:081D8400760000200800002099
:10197C0082B0CDF800E001A920200870FFF7B8FF75
:10198C0001A91848007800230122FFF779FF00F025
:10199C00C1F80DF105011348007801230222FFF76D
:1019AC003FFF0DF105021078010289B2501C00783E
:1019BC00014389B240F6FF7001EA000080B200EEEC
:1019CC00900AF8EE600A084800EE100A20EE800A31
:1019DC00BCEE400A10EE100A80B2DDF800E002B056
:0C19EC00704700BF350000200000B43D33
:10182C0082B0CDF800E040F20004ADF80440044C66
:10183C002468A047BDF90400DDF800E002B0704751
:04184C007C000020FC
:1016900081B0CDF800E008B413460A46C1B2044850
:1016A000FFF710FD01B0DDF800E001B0704700BFAA
:0416B00000200040D6
:1010C40087B0CDF800E08DF8041001469DF80400C7
:1010D400079E7B4CA1420AD17A4D2C6805942C467C
:1010E40024680694784C2568784C256028E0784C70
:1010F400A1420AD1774D2C6805942C4624680694A5
:10110400754C2568714C25601AE0744CA1420AD1D3
:10111400734D2C6805942C4624680694714C2568FC
:101124006A4C25600CE0704CA14209D16F4D2C68CB
:1011340005942C46246806946D4C2568634C256000
:10114400019202910391C1B20398FFF781FB0299C6
:10115400019A684C24787CB9019602930392049115
:1011640008460021FFF72AFC0499039A029B019E7A
:1011740000B1A0E0304661E000250C8865F304145A
:101184000C80012B39D130460D88C5F3800464B13D
:10119400069C4CB1059C24B907204C4C2468A047FC
:1011A40089E0059C641E0594EEE7069C05940C8872
:1011B40044F002040C80019111461A46034601983A
:1011C4000588C5F3400464B1069C4CB1059C24B960
:1011D40006203E4C2468A0476DE0059C641E0594DF
:1011E400EEE7069C0594048844F00404048001920C
:1011F4000A4601461846019B1DE001930B46304602
:1012040001991D88C5F3800464B1069C4CB1059C0A
:1012140024B907202D4C2468A0474CE0059C641E8B
:101224000594EEE7069C05941C8844F002041C8097
:1012340001930B46019900252E4C25705C1E234614
:1012440001931346019A002A31DB01F22C0425880C
:10125400C5F3000464B9069C4CB1059C24B9032071
:101264001A4C2468A04726E0059C641E0594ECE70C
:1012740016E001F20C0424881C705B1C15E00125A7
:101284000C8865F382040C8001F20C0424881C7021
:101294005B1C0AE001F20C0424881C705B1C04E053
:1012A400002AE6D0012AEAD0F4E7521ECBE710B9AF
:1012B4000125104C2570DDF800E007B0704700BF31
:1012C40000200040240000208C0000208800002022
:1012D4000024004028000020900000200028004046
:1012E4002C00002094000020002C0040300000203E
:0812F4009800002034000020E6
:1017140081B0CDF800E008B413460A46C1B20448CB
:10172400FFF7CEFC01B0DDF800E001B0704700BF68
:04173400002400404D
:10175C0081B0CDF800E008B413460A46C1B2044883
:10176C00FFF7AAFC01B0DDF800E001B0704700BF44
:04177C000028004001
:1017B80081B0CDF800E008B413460A46C1B2044827
:1017C800FFF77CFC01B0DDF800E001B0704700BF16
:0417D800002C0040A1
:1019F80081B0CDF800E00E46002183B2002805DA58
:101A08000121404280B280B28FB201E098B28FB219
:101A18003146FFF7DFFE06213446B8B2002908D95F
:101A280063184A1E92B2A21812781A70491E89B217
:101A3800F4E72022227070B1002081B220464218BB
:101A48001278202A02D1491C89B2F8E74A1E92B2BC
:0E1A580083182D221A70DDF800E001B07047EF
:1017DC0081B00A4681B200208DB21146052805D28F
:1017EC000B1820221A70401CC0B2F7E70B1800220D
:1017FC001A70401EC0B20C180A23B5FBF3F203FB9F
:10180C00125292B2303222700A22B5FBF2F292B22C
:10181C0095B202B902E0401EC0B2ECE701B07047CD
:101A680082B0CDF800E001A92A200870FFF742FFF4
:101A780001A91048007800230122FFF703FF00F0B6
:101A88004BF80DF105010B48007801230222FFF7FE
:101A9800C9FE0DF105021078010289B2501C0078C8
:101AA800014389B240F6FF7001EA0000DDF800E06A
:081AB80002B070473500002068
:101B000081B041F6FD27C0F2B70700BF7F1EFDD1AF
:0C1B100000BF00BF00BF00BF01B0704765
:101E100083B0CDF800E0374B374C384D384E394F52
:101E2000394845F680213948018004F0070005282B
:101E300004D004F07000502800D00BE0012252B210
:101E400033480280002149B2324801803248028082
:101E500032480180802132480160019502961E4679
:101E600025463A46029B019C2E48006800F480708B
:101E700000B1F9E72C492D48016001951146324621
:101E80001D46019B2748006800F4807000B1F9E707
:101E900027480160274801602749284801602848F1
:101EA000026028480360200D00F0070028B944F0C4
:101EB0000301254801602A4610E044F4803040F0D8
:101EC0000301214801602A462048006830B1FFF72D
:101ED000B7FE012149B21E480160F5E7002117480D
:101EE000016042F4B44109480180DDF800E003B02C
:101EF000704700BF00000500330000000300010030
:101F0000840000000010000080BB00000C4800406E
:101F10004CA509428CA5094248A5094288A5094259
:101F2000143004E00400014001005A69000001403F
:101F300010100140141001405A69000000040140D3
:101F400004040140080401400C04014004892042BB
:041F5000048A20429D
:101C400081B040F20907C0F2000700BF7F1EFDD13E
:0C1C500000BF00BF00BF00BF01B0704724
:101DD40081B002490248016001B0704780BB000035
:041DE4009C0000203F
:081DA00081B0FEE701B07047BD
:101DA80081B04EF68850CEF20000016841F470010F
:101DB800016000BF00BF00BF00BFF1EE100A40F491
:0A1DC8004000E1EE100A01B0704780
:1023FC0000B5DFF824B0DFF824A0DFF824C0FFF725
:10240C00BFFCDFF820B0DFF820A0DFF820C0FFF71A
:10241C00B7FC00BD704700BF000000203500002055
:10242C00B42300003800002040000020EC23000002
:1024980000B5DFF810B0DFF810A0FFF7DBFB00BDD8
:0C24A800704700BF00000020B8000020BA
:041B1C00A08601009E
:101F5400004C00400004050500000000004C004057
:101F6400000805050000000000000000000000005B
:101F7400000000000000000000000000000000005D
:101F8400000000000000000000000000000000004D
:101F9400000000000000000000000000000000003D
:101FA400000000000000000000000000000000002D
:101FB400000000000000000000000000000000001D
:101FC400000000000000000000000000000000000D
:101FD40000000000000000000000000000000000FD
:101FE40000000000000000000000000000000000ED
:101FF40000000000000000000000000000000000DD
:1020040000000000000000000000000000000000CC
:1020140000000000000000000000000000000000BC
:0C202400000000000000000002000000AE
:10203000204C00400400050500000000204C00403A
:10204000080005050000000000000000000000007E
:102050000000000000000000000000000000000080
:102060000000000000000000000000000000000070
:102070000000000000000000000000000000000060
:102080000000000000000000000000000000000050
:102090000000000000000000000000000000000040
:1020A0000000000000000000000000000000000030
:1020B0000000000000000000000000000000000020
:1020C0000000000000000000000000000000000010
:1020D0000000000000000000000000000000000000
:1020E00000000000000000000000000000000000F0
:1020F00000000000000000000000000000000000E0
:0C210000000000000000000002000000D1
:10210C00404C00400010000500000000404C004016
:10211C00002000050000000000000000000000008E
:10212C0000000000000000000000000000000000A3
:10213C000000000000000000000000000000000093
:10214C000000000000000000000000000000000083
:10215C000000000000000000000000000000000073
:10216C000000000000000000000000000000000063
:10217C000000000000000000000000000000000053
:10218C000000000000000000000000000000000043
:10219C000000000000000000000000000000000033
:1021AC000000000000000000000000000000000023
:1021BC000000000000000000000000000000000013
:1021CC000000000000000000000000000000000003
:0C21DC00000000000000000002000000F5
:1021E800004C00400400050500000000004C0040C1
:1021F80008000505000000000000000000000000C5
:1022080000000000000000000000000000000000C6
:1022180000000000000000000000000000000000B6
:1022280000000000000000000000000000000000A6
:102238000000000000000000000000000000000096
:102248000000000000000000000000000000000086
:102258000000000000000000000000000000000076
:102268000000000000000000000000000000000066
:102278000000000000000000000000000000000056
:102288000000000000000000000000000000000046
:102298000000000000000000000000000000000036
:1022A8000000000000000000000000000000000026
:0C22B80000000000000000000200000018
:1022C400F5070000E5070000D5070000C50700007A
:1022D4001508000005080000B507000065070000A8
:1022E400550700008507000095070000A5070000BA
:1022F400FFFFFFFFFFFFFFFFFFFFFFFFFFFFFFFFEA
:10230400FFFFFFFFFFFFFFFFFFFFFFFFFFFFFFFFD9
:10231400FFFFFFFFFFFFFFFFFFFFFFFFFFFFFFFFC9
:102324000000010002000400080010002000110059
:10233400210022004400250049004A005200920076
:1023440053005500AA006B00AD00B500B600D600DE
:10235400B700BB00DD00ED00EE00BF00DF00EF00C2
:08236400F700FB00FD00FE0084
:10236C0000001102CB024303E903E4049605860640
:10237C006308B008C709B80B070DF70DA90EA30F1A
:10238C00BE101A118A13531673176E1820190B1AD4
:10239C00591BEB1B4F1DB51E441F8D2010217C219A
:0823AC002F222C23D223482428
:0823B400416E676C65203A00E0
:0C23BC004D61676E6574696373203A0020
:1023C800496E697469616C697A652E2E2E2E2E000D
:0423D8000000000001
:0423DC0000000000FD
:0423E00000000000F9
:0423E40000000000F5
:0123E80000F4
:0423EC0010270000B6
:0423F00000366E0144
:0823F40051160000151700004E
:00000001FF
