:10000000FCFF0220FD1E0000B51E0000B51E000012
:10001000B51E0000B51E0000B51E0000B51E000094
:10002000B51E0000B51E0000B51E0000B51E000084
:10003000B51E0000B51E0000B51E0000B51E000074
:10004000B51E0000B51E0000B51E0000B51E000064
:10005000B51E0000B51E0000B51E0000B51E000054
:10006000B51E0000B51E0000B51E0000B51E000044
:10007000B51E0000B51E0000B51E0000B51E000034
:10008000B51E0000B51E0000B51E0000B51E000024
:10009000B51E0000B51E0000B51E0000B51E000014
:1000A000B51E0000B51E0000B51E0000B51E000004
:1000B000B51E0000B51E0000B51E0000B51E0000F4
:1000C000B51E0000B51E0000B51E0000B51E0000E4
:1000D000B51E0000B51E0000B51E0000B51E0000D4
:1000E000B51E0000B51E0000B51E0000B51E0000C4
:1000F000B51E0000B51E0000B51E0000B51E0000B4
:10010000B51E0000B51E0000B51E0000B51E0000A3
:10011000B51E0000B51E0000B51E0000B51E000093
:10012000B51E0000B51E0000B51E0000B51E000083
:10013000B51E0000B51E0000B51E0000B51E000073
:10014000B51E0000B51E0000B51E0000B51E000063
:10015000B51E0000B51E0000B51E0000B51E000053
:10016000B51E0000B51E0000B51E0000B51E000043
:10017000B51E0000B51E0000B51E0000B51E000033
:10018000B51E0000B51E0000B51E0000B51E000023
:08019000B51E0000B51E0000C1
:101EFC0000F010F8FFF7DCFF00F0D2FCFFF7EEFF6C
:101F0C0000F08EFCFFF72EFFFFF79EFFFFF768FF38
:041F1C00FCE7FEE7F9
:101DD80081B01CF8019B0BF8019BBBEB0A0FF8D1F3
:041DE80001B070478F
:101D9C0081B04FF000094FF0000CBDEB0A0F04DCD2
:101DAC00BDEB0B0F01DBD446EA464BF8049BBBEBB7
:101DBC000A0FFAD1BCEB0A0F05DDE246D9F800B0E8
:0A1DCC000BF1040BF1E701B07047C2
:101D700081B0CDF800E0084801460020FFF7EAFEF8
:101D800042F280510120FFF773FFFFF7A7FFDDF854
:0C1D900000E001B0704700BF28280000F0
:101B540081B0CDF800E00DE00846FFF75DFF10E02E
:101B64000846FFF769FF0CE00846FFF731FF08E07D
:101B7400012006E00028EFD00128F1D00228F3D09C
:0A1B8400F6E7DDF800E001B070475D
:101A1C0081B0CDF800E0016808460449FFF77EFE6E
:101A2C000020DDF800E001B0704700BFB4260000D4
:1017280081B0CDF800E00A4601460348FFF7CEFA3B
:0C173800DDF800E001B0704700600640E2
:100CD4008AB0CDF800E0504B984210D100244F4B1D
:100CE4001C60012464B24E4B1C604E4C4E4B1C6085
:100CF4004E4C4F4B1C604F4C4F4B1C6026E04F4BEF
:100D0400984210D100244E4B1C60012464B24D4B18
:100D14001C604D4C444B1C604C4C454B1C604C4C73
:100D2400454B1C6012E04B4B98420FD100244A4BB8
:100D34001C60012464B2494B1C60494C3A4B1C6052
:100D4400484C3B4B1C60484C3B4B1C60019102904F
:100D54001046FFF76FFE06AB1846FFF791FE0298A8
:100D640001994FF0FF39002740F200080022022ABF
:100D740037D8B9F1000F34D001231BB203FA02F5BE
:100D84002DB20026322E28D2F400384B1B191B1D1D
:100D94001B6805FB03F4079BB3FBF4F3049399422C
:100DA40003D9049BCB1A039302E0049B5B1A0393BD
:100DB400039B0593039B4B450BD21746F4002B4B27
:100DC4001B19D3F80080059C059B002B00D105E07E
:100DD40000E04C46761CA146D4E74C46521CA14682
:100DE400C5E7441CBB0143EA08032370851C0124A6
:100DF4002B7864F3C7132B70851C01242B7864F3C0
:100E040086132B70851D01242B7864F345132B70F6
:100E1400DDF800E00AB07047006006402400FF1FC0
:100E240098069042451700008800FF1F991600009D
:100E34008C00FF1FBD1600009000FF1F00700640CD
:100E44002800FF1F9C069042111800005515000051
:100E5400E515000000600E402C00FF1F18059042AD
:100E640071180000E9140000091600004C24000069
:100A840081B0CDF800E00446FFF768FD40F2E8319C
:100A940000FB01F3194909680A0F1849096801F0B4
:100AA4007061090EC8B21549096801F47001090D95
:100AB400CDB21249096801F47021090CCEB2D1B249
:100AC400491C09B259430F462360221D411C09B237
:100AD400B7FBF1F1116004F20802691C09B2B7FB1B
:100AE400F1F1116004F20C02711C09B2B7FBF1F1CF
:100AF4001160DDF800E001B0704700BF448004409D
:0C05600001480068704700BF7800FF1FD2
:100A380081B0CDF800E040F2000C83464FEA8C010B
:100A48000BEB01010968B1F1FF3F12D00BF1340142
:100A58004FEA8C03C91809680A460BEB03010968B9
:100A680008461146FFF74CFD0CF1010C1FFA8CFCEF
:0A0A7800E4E7DDF800E001B070478C
:1005080082B0CDF800E080464FEA581202F00702A8
:10051800914608F01F04A24693010D4AD3184FF0E4
:100528000102A240019218460A460199FFF7DEFF30
:100538004FEA0933074AD3184FEA8A029C1808F48D
:10054800E06322681A432260DDF800E002B07047D9
:0805580000F00F400090044088
:1004F40081B0CDF800E0FFF7A1FFDDF800E001B026
:0205040070473E
:1004400083B0CDF800E006460C4615463046FFF76F
:10045000DFFF40F2FF1306EA030080090026224670
:100460002946202E39D24FF0010303FA06F402EA9E
:1004700004031F46A3422ED104031A4B1C19B300D8
:10048000E51801952C68184B04EA03032B60174B01
:1004900001EA0304019B1B6843EA0404019B1C60FE
:1004A00001F48033B3F5803F15D08401104B1B1944
:1004B0001433029301F400333BB1FC43029B1B68ED
:1004C00003EA0404029B1C6005E0029B1B6843EAEC
:1004D0000704029B1C60761CC3E7DDF800E003B054
:1004E000704700BF009004400000FFFFFFFF0000C6
:0404F00000F00F40C9
:1004100081B040F2FF1100EA01018909084600F2AB
:1004200009024FF0010101FA02F20449096841EAA8
:10043000020202490A6001B0704700BF38800440E0
:101A3C0081B0CDF800E0016808460449FFF76EFE5E
:101A4C000020DDF800E001B0704700BFB4260000B4
:1019D40081B0CDF800E0016808460449FFF7A2FE93
:1019E4000020DDF800E001B0704700BFB42600001D
:101C700081B0CDF800E011E00846FFF7EFFE16E076
:101C80000846FFF7FDFE12E00846FFF72BFE0EE0C8
:101C90000846FFF715FE0AE0012008E00028EBD017
:101CA0000128EDD00228EFD01028F1D0F4E7DDF8BC
:061CB00000E001B07047E6
:101A5C0081B0CDF800E0FFF7B7FE044A04490A60F4
:101A6C000020DDF800E001B0704700BFAD150000AC
:041A7C006800FF1FE0
:1017D40081B0CDF800E003460A48FFF779FB0A4AD6
:1017E40040F2000104B402B440F20002194640F28F
:1017F40000030448FFF73CFB02B0DDF800E001B051
:0C180400704700BF00C0064048260000EE
:100ED40081B0304988420CD12F4A30490A60304AE7
:100EE40030490A60304A31490A60314A31490A605E
:100EF4004EE0314988420CD1304A28490A60304AD0
:100F040028490A602F4A29490A602F4A29490A6058
:100F14003EE02E4988420CD12D4A20490A602D4AD0
:100F240020490A602C4A21490A602C4A21490A6056
:100F34002EE02B4988420CD12A4A18490A602A4AD1
:100F440018490A60294A19490A60294A19490A6054
:100F54001EE0284988420CD1274A10490A60274AD2
:100F640010490A60264A11490A60264A11490A6052
:100F74000EE0254988420BD1244A08490A60244AD4
:100F840008490A60234A09490A60234A09490A6050
:100F940001B0704700A006402D1600009400FF1F0A
:100FA400291800009800FF1F591800009C00FF1F1B
:100FB40041180000A000FF1F00B00640911500007A
:100FC40089180000111700002515000000C0064014
:100FD400AD1500000D150000791500003D15000049
:100FE40000D00640C9150000D1140000711400009F
:100FF4005914000000A00E40491600008914000096
:10100400B9140000A114000000B00E407D160000C9
:0C10140065160000F9160000E11600004F
:100E740085B0CDF800E001900291ADF80C20ADF8FA
:100E84001030BDF81440ADF814400698FFF7D2FDB9
:100E94000198FFF745FE02990198FFF78BFEBDF814
:100EA4000C100198FFF72CFEBDF810100198FFF705
:100EB400D1FEBDF814100198FFF7E8FE0198FFF782
:100EC400B3FE0198FFF7BEFEDDF800E005B0704701
:100B240081B01849884204D1012252B216490A60A0
:100B340026E01649884204D1012252B214490A60BF
:100B44001EE01449884204D1012252B212490A60BB
:100B540016E01249884204D1012252B210490A60B7
:100B64000EE01049884204D1012252B20E490A60B3
:100B740006E00E49884203D1012252B20C490A60B0
:100B840001B0704700A00640A806904200B006409D
:100B9400AC06904200C00640B006904200D0064029
:100BA400B406904200A00E402805904200B00E40CA
:040BB4002C0590423A
:100BB80085B0CDF800E08046894601AA1046FFF7C7
:100BC8005DFF164A904503D0154A904500D001E0D4
:100BD800019800E002984FEA0912B0FBF2F291B2D4
:100BE80092B2130A9BB298F800201A4388F80020A2
:100BF80008F10103CAB21A7043014FEA0912B3FBA4
:100C0800F2F34A0192B29A1AD0B208F10A031A789A
:100C180002431A70DDF800E005B0704700A00640F6
:040C280000B00640D2
:100B040081B0841C23784FF6EF7212B203EA02021A
:100B14002270841C0B0122781A43227001B07047A2
:100C580081B001F0020262B1841C01F00203227823
:100C68001A432270841C01F0010322781A4322706F
:100C780007E0841C23784FF6FD7212B203EA0202E1
:060C8800227001B070476C
:0C0C900081B002780A43027001B0704786
:100C2C0081B0C21C117841F00401117001B0704701
:100C480081B0C21C117841F00801117001B07047E1
:101A800081B0CDF800E0FFF787FE044A04490A6000
:101A90000020DDF800E001B0704700BFC91500006C
:041AA0006800FF1FBC
:1017980081B0CDF800E003460A48FFF797FB0A4AF4
:1017A80040F2000104B402B440F20002194640F2CB
:1017B80000030448FFF75AFB02B0DDF800E001B06F
:0C17C800704700BF00D006402027000042
:1018E40081B0CDF800E0FFF755FF044A04490A60CF
:1018F4000020DDF800E001B0704700BFC91500000A
:041904006800FF1F59
:1018C00081B0CDF800E0FFF749FF044A04490A60FF
:1018D0000020DDF800E001B0704700BF2D160000C9
:0418E0006800FF1F7E
:10175C0081B0CDF800E003460A48FFF7B5FB0A4A12
:10176C0040F2000104B402B440F20002194640F207
:10177C0000030448FFF778FB02B0DDF800E001B08D
:0C178C00704700BF00A00640DC250000F4
:101CDC0040F6FE07C0F23D0700BF00BF7F1EFDD1DE
:081CEC0000BF00BF00BF7047FC
:101E540081B0CDF800E00C2212491348FFF72AFFA5
:101E640041F2000140F2000040EA010189B240F66B
:101E74000000014389B240F20020014389B240F2DC
:101E84000010014389B240F2800041EA0000FFF7EC
:101E940007FE06480221FFF723FEDDF800E001B04B
:101EA400704700BF1C2800008C2700000000FF1FA3
:101CB80081B0CDF800E00446054B1A700846FFF7DE
:101CC8005FFE2046FFF75AFEDDF800E001B07047DE
:041CD8006600FF1F84
:10198800026806490A60011D0A6805490A6000F2F2
:1019980008010A6803490A60704700BF6C00FF1F0E
:0819A8007000FF1F7400FF1F17
:021984007047AA
:101AA40082B0CDF800E001AB1E2119705A1C010A66
:101AB40011709A1C00F0FF011170FFF723FF01AAB7
:101AC400064909780123C8B211460322FFF790FFA3
:101AD40000F002F9DDF800E002B070476600FF1F75
:1019080082B0CDF800E040F20004ADF80440064C87
:101918002468A047BDF9041041EA000000B2DDF8D0
:0C19280000E002B0704700BF6C00FF1F21
:1017440081B0CDF800E00348FFF76EFDDDF800E05E
:0817540001B07047006006407F
:10122C0084B0CDF800E04FF000024349884205D16C
:10123C0042490C6842490968039115E041498842CA
:10124C0006D141490A6841490968039114460BE0EB
:10125C003F49884206D13F490A683F4909680391D2
:10126C00114600E011460C4601940290FFF7ECFA8F
:10127C000298019C831C0122197862F345111970A4
:10128C00C11C0A78C2F30011C9B1C31C0122197820
:10129C0062F304111970811D0A78C2F3001129B18F
:1012AC00831D0122197862F304111970C31C0122E9
:1012BC00197862F3410119704FF6FF7038E023463C
:1012CC00019404460198E11C0A78C2F3400151B91B
:1012DC0040B123B90520039CA047012028E05A1EE9
:1012EC001346FFE7EFE7A11D0A78C2F3001129B1FD
:1012FC00A31D0122197862F304111970E31C012259
:10130C00197862F34101197005462346D91C0A78F5
:10131C00C2F3400159B148B125B90520039CA0473F
:10132C00012005E0691E0A461546FFE7EEE700209E
:10133C00DDF800E004B07047006006402400FF1F99
:10134C007C00FF1F007006402800FF1F8000FF1F5D
:0C135C0000600E402C00FF1F8400FF1FEB
:0C0C3C0001490860704700BF0808FE4333
:0C0A2C0001490860704700BF2C08FE4321
:0C06440001490860704700BF1010FE4321
:0C06380001490860704700BF1410FE4329
:0C065C0001490860704700BF1C10FE43FD
:0C06140001490860704700BF1810FE4349
:0C06200001490860704700BF2800FE433D
:0C05FC0001490860704700BF3408FE434E
:0C06080001490860704700BF0818FE435D
:0C062C0001490860704700BF0C18FE4335
:0C06500001490860704700BF2018FE43FD
:0C05F00001490860704700BF2418FE435A
:0C05900001490860704700BF0C08FE43E2
:0C059C0001490860704700BF4C08FE4396
:0C05A80001490860704700BF0C10FE43C2
:0C05840001490860704700BF1410FE43DE
:0C05D80001490860704700BF1C10FE4382
:0C05E40001490860704700BF1810FE437A
:0C05CC0001490860704700BF2C00FE438E
:0C05B40001490860704700BF2008FE43AA
:0C05C00001490860704700BF4010FE4376
:0C09D80001490860704700BF4410FE4356
:0C09E40001490860704700BF2018FE4366
:0C09C00001490860704700BF2418FE4386
:0C09CC0001490860704700BF1808FE4396
:0C09F00001490860704700BF2808FE4362
:0C0A140001490860704700BF0810FE4355
:0C0A200001490860704700BF1410FE433D
:0C09FC0001490860704700BF1C10FE435A
:0C0A080001490860704700BF1810FE4351
:0C09B40001490860704700BF1000FE43BE
:0C06800001490860704700BF1C08FE43E1
:0C068C0001490860704700BF4010FE43A9
:0C06680001490860704700BF4410FE43C9
:0C06740001490860704700BF2018FE43D9
:0C06980001490860704700BF2418FE43B1
:1008540082B0CDF800E04FF000021A49884205D179
:1008640019490B6819490968019115E0184988422A
:1008740006D118490A6818490968019113460BE022
:100884001649884206D116490A6816490968019131
:10089400114600E011460B461D4604462046FFF76C
:1008A40063FE50B943B11DB90720019CA04704E081
:1008B400691E08460546FFE7F0E7DDF800E002B0F0
:1008C400704700BF006006402400FF1F7C00FF1F2C
:1008D400007006402800FF1F8000FF1F00600E40CC
:0808E4002C00FF1F8400FF1F20
:10056C0081B0C11C0A78C2F3401181F00101C9B2FB
:06057C00C8B201B0704797
:1018100081B0CDF800E00348FFF708FDDDF800E0F7
:0818200001B0704700700640A2
:1018700081B0CDF800E00348FFF7D8FCDDF800E0C8
:0818800001B0704700600E404A
:1018280081B0CDF800E00348FFF734FADDF800E0B6
:0818380001B0704700A006405A
:100C9C0081B0011D0A78C2F3401101B9F9E7C11DF9
:080CAC000978C8B201B07047DD
:1018580081B0CDF800E00348FFF728FADDF800E092
:0818680001B0704700A006402A
:0E0CB40081B0011D0978C1F3401001B07047F6
:1018400081B0CDF800E00348FFF73CFADDF800E096
:0818500001B0704700A0064042
:0E0CC40081B0011D0978C1F3801001B07047A6
:1018880081B0CDF800E00348FFF704FADDF800E086
:0818980001B0704700B00640EA
:1017100081B0CDF800E00348FFF7CCFADDF800E037
:0817200001B0704700B0064063
:1015240081B0CDF800E00348FFF7CAFBDDF800E026
:0815340001B0704700B0064051
:10150C0081B0CDF800E00348FFF7C2FBDDF800E046
:08151C0001B0704700C0064059
:1015780081B0CDF800E00348FFF798FBDDF800E004
:0815880001B0704700C00640ED
:10153C0081B0CDF800E00348FFF7BEFBDDF800E01A
:08154C0001B0704700C0064029
:1014D00081B0CDF800E00348FFF7E0FBDDF800E065
:0814E00001B0704700D0064086
:1014700081B0CDF800E00348FFF71CFCDDF800E088
:0814800001B0704700D00640E6
:1014580081B0CDF800E00348FFF730FCDDF800E08C
:0814680001B0704700D00640FE
:1014880081B0CDF800E00348FFF704FCDDF800E088
:0814980001B0704700A00E40F6
:1014B80081B0CDF800E00348FFF7F8FBDDF800E065
:0814C80001B0704700A00E40C6
:1014A00081B0CDF800E00348FFF70CFCDDF800E068
:0814B00001B0704700A00E40DE
:1016640081B0CDF800E00348FFF716FBDDF800E099
:0816740001B0704700B00E4008
:1016F80081B0CDF800E00348FFF7D8FADDF800E044
:0817080001B0704700B00E4073
:1016E00081B0CDF800E00348FFF7ECFADDF800E048
:0816F00001B0704700B00E408C
:1019F40082B0CDF800E040F20004ADF80440054C9C
:101A04002468A047BDF90440044320B2DDF800E097
:081A140002B070477000FF1FD3
:1016BC0081B0CDF800E008B413460A46C1B2044824
:1016CC00FFF7A8FC01B0DDF800E001B0704700BFE7
:0416DC000060064064
:1010200087B0CDF800E005920246C8B20693079C4F
:1010300007944FF000016C4CA24206D16B4C26681D
:101040006B4C24680494314614E06A4CA24205D1EA
:10105000694C2668694C246804940AE0684CA242F2
:1010600006D1684C2168684C246804940E4600E060
:101070000E463146440001910292E1B21046FFF75C
:1010800035FC029A019920B91046FFF70BFB0020AE
:10109000A5E000273B46069CA34216D2059CE41817
:1010A0002478019202910393E1B21046FFF71EFCEF
:1010B000039B0299019A20B91046FFF7F3FA00202A
:1010C0008DE05C1C27463B46E5E7079C012C48D198
:1010D0000B461046C41C2578C5F3400464B141B1E9
:1010E00023B90420049CA047012078E05A1E14462E
:1010F00000E01C462346EDE7861C0025347865F3A6
:10110000451434700A46C41C2578C5F340045CB904
:1011100039B122B90420049CA04701205FE0531E8E
:1011200000E013461A46EEE7841D2578C5F3001447
:101130002CB1861D0125347865F304143470841DA8
:101140002578C5F380142CB1861D0125347865F30C
:1011500086143470C61C0125347865F3410434705C
:101160002AE0961C0125347865F3820434700B461E
:101170001046C41C2578C5F3400464B941B123B9B5
:101180000420049CA047012029E05A1E144600E0D8
:101190001C462346EDE7841D2578C5F300142CB1C9
:1011A000861D0125347865F304143470C61C0125AE
:1011B000347865F3410434700A46C41C2578C5F3BD
:1011C00040045CB139B122B90420049CA04701203D
:1011D00005E0531E00E013461A46EEE70020DDF856
:1011E00000E007B0704700BF006006402400FF1F0A
:1011F0007C00FF1F007006402800FF1F8000FF1FBB
:0C12000000600E402C00FF1F8400FF1F48
:1008EC0082B0CDF800E04FF00003264A904205D1CB
:1008FC00254A1568254A1268019215E0244A90424F
:10090C0006D1244A1368244A126801921D460BE052
:10091C00224A904206D1224A1368224A1268019256
:10092C001A4600E01A461546841C0123227863F30C
:10093C0004122270021D11702C462946C21C137819
:10094C00C3F340025AB949B124B90420019CA04711
:10095C00012012E0621E13461C46FFE7EEE7C41CA2
:10096C000123227863F341022270C21C1378C3F373
:10097C00000282F00102D2B2D0B2DDF800E002B087
:10098C00704700BF006006402400FF1F7C00FF1F63
:10099C00007006402800FF1F8000FF1F00600E4003
:0809AC002C00FF1F8400FF1F57
:1006A40084B0CDF800E04FF000023549884205D10E
:1006B40034490C6834490968039115E03349884288
:1006C40006D133490A6833490968039114460BE09B
:1006D4003149884206D131490A6831490968039190
:1006E400114600E011460C46831C0022197862F37F
:1006F40045111970831C0022197862F304111970D2
:100704000194029000F0A4F80298019C2346C11CB5
:100714000A78C2F3400151B944B123B90620039CBD
:10072400A047012027E05A1E1346FFE7EFE7811D8B
:100734000A78C2F3801129B1831D0122197862F36A
:1007440086111970C31C0122197862F341011970D2
:100754002346C11C0A78C2F3400159B14CB123B9F4
:100764000620039CA047012005E0591E0A461346B3
:10077400FFE7EEE70020DDF800E004B0704700BFBB
:10078400006006402400FF1F7C00FF1F007006402D
:100794002800FF1F8000FF1F00600E402C00FF1F79
:0407A4008400FF1FAF
:1015E40081B0CDF800E008B413460A46C1B20448FD
:1015F400FFF714FD01B0DDF800E001B0704700BF53
:04160400007006402C
:1016080081B0CDF800E008B413460A46C1B20448D8
:10161800FFF702FD01B0DDF800E001B0704700BF40
:0416280000600E4010
:101AE40083B0CDF800E0024610460D228DF80820A0
:101AF4000A228DF809201FE0FFF7D0FE23E00278C8
:101B04002AB10190FFF7CAFE0198401CF7E71AE0DA
:101B140002782AB10190FFF7C1FE0198401CF7E753
:101B240002AA1046FFF7BAFE0DF109021046FFF7AC
:101B3400B5FE08E0062007E00029DDD00129DED04B
:101B44000229E5D0F6E70020DDF800E003B0704795
:1018A00081B0CDF800E00178CCB2A0B2034C24683E
:1018B000A0470020DDF800E001B070476800FF1F7E
:10162C0081B0CDF800E081B20348FFF7E9FDDDF8A9
:0C163C0000E001B0704700BF00A00640B5
:10120C0081B0ADF800100146BDF800000A1D13783E
:10121C00C3F3C01202B9F9E7CA1D107001B07047D0
:1015900081B0CDF800E081B20348FFF737FEDDF8F7
:0C15A00000E001B0704700BF00B0064042
:1015AC0081B0CDF800E081B20348FFF729FEDDF8E9
:0C15BC0000E001B0704700BF00C0064016
:1015C80081B0CDF800E081B20348FFF71BFEDDF8DB
:0C15D80000E001B0704700BF00D00640EA
:1016480081B0CDF800E081B20348FFF7DBFDDDF89B
:0C16580000E001B0704700BF00A00E4091
:10167C0081B0CDF800E081B20348FFF7C1FDDDF881
:0C168C0000E001B0704700BF00B00E404D
:101DEC0081B0CDF800E0FFF77FFF1249088000B208
:101DFC001149FFF7FFFE11480121FFF76DFE02218B
:101E0C000D48FFF769FEFFF7C9FE0D49088000B2C7
:101E1C000949FFF7EFFE0B480121FFF75DFE022198
:101E2C000548FFF759FEFFF7ADFEDDF800E001B005
:101E3C00704700BF3000FF1F3200FF1F1000FF1F54
:081E4C006400FF1F1800FF1FD6
:101CF40082B0CDF800E001A920200870FFF702FEB1
:101D040001A91848007800230122FFF771FEFFF7AC
:101D1400E3FF0DF105011348007801230222FFF7C8
:101D240045FE0DF105021078010289B2501C0078BD
:101D3400014389B240F6FF7001EA000080B200EE70
:101D4400900AF8EE600A084800EE100A20EE800AB5
:101D5400BCEE400A10EE100A80B2DDF800E002B0DA
:0C1D6400704700BF6600FF1F0000B43D88
:1019B00082B0CDF800E040F20004ADF80440044CE1
:1019C0002468A047BDF90400DDF800E002B07047CC
:0419D0007400FF1F81
:1016980081B0CDF800E008B413460A46C1B2044848
:1016A800FFF75EFE01B0DDF800E001B0704700BF53
:0416B8000060064088
:1013680085B0CDF800E08DF8041001469DF8040022
:1013780003920493059C05944400A4B244F001042C
:1013880001910846E1B2FFF7ADFA019918B908468C
:10139800FFF784F958E08E1C0025347865F30414AF
:1013A8003470049C012C06D18E1C0125347865F319
:1013B800C304347005E08E1C0025347865F3C3043B
:1013C800347001910846FFF7EBF90199049C621EFD
:1013D800002A34DB15E0019102920846FFF75EF916
:1013E800029A019912E08E1C0125347865F3C30432
:1013F80034700BE08E1C0025347865F3C304347018
:1014080004E0002AE7D0012AEDD0F3E73AB90C1D31
:101418002578039C2570039C641C03940BE00191C0
:1014280002920846FFF7BCF9029A0199039C2070C2
:10143800039C641C0394541E23461A46C8E7059C63
:1014480014B90846FFF7EEFEDDF800E005B0704776
:1007A80082B0CDF800E04FF000021F49884205D121
:1007B8001E490B681E490968019115E01D498842C8
:1007C80006D11D490A681D490968019113460BE0C5
:1007D8001B49884206D11B490A681B4909680191CF
:1007E800114600E011460B46011D0C781D46C11C40
:1007F8000A78C2F3400159B94BB125B90320019CCD
:10080800A04701200BE0691E0A461546FFE7EEE700
:10081800C31C0122197862F341011970E0B2DDF8B6
:1008280000E002B0704700BF006006402400FF1FD0
:100838007C00FF1F007006402800FF1F8000FF1F7C
:0C08480000600E402C00FF1F8400FF1F0A
:1015540081B0CDF800E008B413460A46C1B204488D
:10156400FFF700FF01B0DDF800E001B0704700BFF5
:0415740000700640BD
:1014E80081B0CDF800E008B413460A46C1B20448FA
:1014F800FFF736FF01B0DDF800E001B0704700BF2C
:0415080000600E4031
:101C000081B0CDF800E00E46002183B2002805DA4D
:101C10000121404280B280B28FB201E098B28FB20F
:101C20003146FFF787FE06213446B8B2002908D9AD
:101C300063184A1E92B2A21812781A70491E89B20D
:101C4000F4E72022227070B1002081B220464218B1
:101C50001278202A02D1491C89B2F8E74A1E92B2B2
:0E1C600083182D221A70DDF800E001B07047E5
:1019340081B00A4681B200208DB21146052805D235
:101944000B1820221A70401CC0B2F7E70B180022B3
:101954001A70401EC0B20C180A23B5FBF3F203FB45
:10196400125292B2303222700A22B5FBF2F292B2D3
:1019740095B202B902E0401EC0B2ECE701B0704774
:101BA80082B0CDF800E001A92A200870FFF7A8FE4E
:101BB80001A91048007800230122FFF717FF00F061
:101BC80089F80DF105010B48007801230222FFF77F
:101BD800EBFE0DF105021078010289B2501C007865
:101BE800014389B240F6FF7001EA0000DDF800E029
:081BF80002B070476600FF1FF8
:101B900045F6FE17C0F2622700BF00BF7F1EFDD1D1
:081BA00000BF00BF00BF704749
:101F200090B072B6974801909748029097480390F6
:101F300097480490974805909748069097480790CF
:101F4000974808909748099097480A9097480B90AF
:101F500097480C90974998480D9098480E900D9886
:101F600000F007000F9001F0010050B94CF2205032
:101F7000934908804DF62810088040F2D21191480C
:101F800001809148007800F0010050B18F4800783E
:101F900000F0080020B18D49087840F00800087072
:101FA00021E08B48006840F0005189480160894871
:101FB000006800F48070B0B9864801686FF4705012
:101FC00001EA000040F440718248016081480068E5
:101FD00040F480717F4801607E4801686FF40070B2
:101FE00001407C480160AA217B4801700D9800F0F7
:101FF000100060B9794801786FF0600001407748BF
:10200000017077480078012800D0FAE71CE00D98AD
:1020100000F01000C0B10E997248814208D96021C9
:102020006E4801706E480078802800D0FAE70BE017
:102030006A4801786FF060000140684801706848A4
:102040000078012800D0FAE70499674801606748E2
:1020500001686FF440200140029800F440200143E1
:1020600062480160624801686FF4403001400398A3
:1020700000F4403001435E4801600F9830B10F9882
:10208000012803D00F98022800D061E0019800F0E9
:10209000800050B9089800F0400028B10B9800F07B
:1020A0000300002800D100E015E05248006840F429
:1020B00000715048016050480168504801404E4846
:1020C0000160069800F0040028B14D4801684B48B3
:1020D00001404B4801600A994A48017005994A48F5
:1020E0000170059800F0040038B14848007800F00D
:1020F0001000002800D1F8E705E04448007800F01F
:10210000100000B1F9E74248007800F0BF01C9B201
:10211000069800F0FD0001433D480170079800F06B
:10212000E0013C48007800F01F000143394801708D
:102130000199394801700B99384801700F980228AD
:1021400005D13348007840F0020131480170B8E011
:10215000019800F0800020B90B9800F0030000B156
:1021600065E02448006840F400712248016022487C
:1021700001682248014020480160069800F00400F0
:1021800000F04EB80000000000000C00000001004C
:1021900000001401220000002400000000000000E4
:1021A00002000000460000000000000000000000E7
:1021B000000000000000000007000000C0D4010083
:1021C0000E2005400020054000F0074002D00740E7
:1021D0003C80044010D0034000E0074001E007408D
:1021E00003E0074080380100448004400070044050
:1021F000048004403880044048900440FFF8FFFE0B
:102200004C9004400840064000400640064006400E
:102210000140064003400640005006400C40064086
:1022200028B17A4801687A480140784801600A99E3
:10223000784801707848007800F0BF01C9B206986C
:1022400000F0FD000143744801700199734801706A
:102250000B99734801700F98072805D1059840F035
:1022600080017048017002E005996E48017006987F
:1022700000F0040048B10B9800F0030028B96A4848
:10228000007800F0020000B9F9E7059800F00400BA
:1022900038B16548007800F01000002800D1F8E758
:1022A00005E06148007800F0100000B1F9E70798F8
:1022B00000F0E0015D48007800F01F0001435B483A
:1022C0000170089800F0BF0159480170099800F0AA
:1022D000BF0158480170089800F0400028B15448E8
:1022E000007840F04001524801700F98052806D14F
:1022F0004948007840F00201474801701BE00F9800
:10230000062803D00F98072800D014E04948007829
:1023100040F04001474801704348007800F0400019
:1023200000B9F9E70F98072805D13E48007800F07A
:102330003F013C4801700F9818B10F98032800D056
:102340002CE03948007800F00C0000B1F9E73A4879
:10235000006840F00101384801604FF00001374843
:1023600001604FF08001364801604FF005013548AB
:1023700001604FF00101324801603148006800F00F
:10238000800000B9F9E700212D4801602A48016862
:102390006FF001000140284801602AE00F980128F1
:1023A00003D00F98022800D007E01F48007800F003
:1023B0000C00042800D0F8E71BE00F98042806D092
:1023C0000F98062803D00F98052800D007E016487C
:1023D000007800F00C00082800D0F8E709E00F981A
:1023E000072806D11048007800F00C000C2800D017
:1023F000F8E7154801686FF00F0001400C9800F0F5
:102400000F0001431048016010B070474C90044029
:10241000FFF8FFFE0840064001400640005006401D
:102420000C4006400040064006400640034006407F
:10243000044006400540064038800440080004403F
:0C244000000004400400044048800440F8
:101EE80081B002490248016001B07047C0D40100C6
:041EF8007800FF1F50
:081EB40081B0FEE701B07047A8
:101EBC0081B072B60849086840F47000086000BF31
:101ECC0000BF00BF00BFF1EE100A40F44000E1EE8D
:0C1EDC00100A62B601B0704788ED00E00B
:10282C0000B5DFF814B0DFF814A0DFF814C0FFF720
:10283C00CDFA00BD704700BF0000FF1F3000FF1F26
:04284C00EC27000075
:1028AC0000B5DFF810B0DFF810A0FFF771FA00BD2B
:0C28BC00704700BF0000FF1FA400FF1FBA
:100400000000000000000000FFFFFFFF02FDFFFFF3
:10244C000000000014000000010000001600000055
:10245C000200000018000000030000001A00000039
:10246C00040000001C000000050000001E0000001D
:10247C0009000000200000000600000022000000FF
:10248C000A000000240000000700000028000000E3
:10249C000C0000002C0000001000000030000000B8
:1024AC001100000038000000120000004000000085
:1024BC000F00000044000000130000004800000062
:1024CC00140000005000000015000000580000002F
:1024DC0019000000600000001600000068000000F9
:1024EC001A000000700000001700000080000000BF
:1024FC001C000000900000001D000000A000000067
:10250C001E000000C000000022000000E0000000DF
:10251C001F000000F000000023000000000100007C
:10252C0024000000200100002500000040010000F4
:10253C0026000000800100002A000000C0010000FD
:10254C0027000000E00100002B000000000200004A
:10255C002C000000400200002D0000008002000052
:10256C002E00000000030000320000008003000079
:10257C002F000000C0030000330000000004000026
:10258C00340000008004000035000000000500004D
:10259C0036000000000600003A00000000070000B2
:1025AC0037000000800700003B000000000800001E
:1025BC003C000000000900003D000000000A000083
:1025CC003E000000000C00003F000000000F000067
:1025DC003103000030030000FFFFFFFF000000008C
:1025EC0000000000000000000000000000000000DF
:1025FC0000000000000000000000000000000000CF
:10260C00000000000000080000000800FFFFFFFFB2
:10261C0000000000000000000000000000000000AE
:10262C00000000000000000000000000000000009E
:0C263C0000000000000000000000000092
:102648006303000062030000FFFFFFFF00000000BB
:102658000000000000000000000000000000000072
:102668000000000000000000000000000000000062
:10267800000000000000080000000800FFFFFFFF46
:102688000000000000000000000000000000000042
:102698000000000000000000000000000000000032
:0C26A80000000000000000000000000026
:1026B4006802000069020000FFFFFFFF0000000045
:1026C4000000000000000000000000000000000006
:1026D40000000000000000000000000000000000F6
:1026E400000000000000080000000800FFFFFFFFDA
:1026F40000000000000000000000000000000000D6
:1027040000000000000000000000000000000000C5
:0C271400000000000000000000000000B9
:102720005103000050030000FFFFFFFF0000000006
:102730000000000000000000000000000000000099
:102740000000000000000000000000000000000089
:10275000000000000000080000000800FFFFFFFF6D
:102760000000000000000000000000000000000069
:102770000000000000000000000000000000000059
:0C2780000000000000000000000000004D
:10278C003D0C00002D0A0000450600003906000033
:10279C005D0600001506000021060000FD05000086
:1027AC00090600002D06000051060000F10500008E
:1027BC00FFFFFFFFFFFFFFFFFFFFFFFFFFFFFFFF1D
:1027CC00FFFFFFFFFFFFFFFFFFFFFFFFFFFFFFFF0D
:1027DC00FFFFFFFFFFFFFFFFFFFFFFFFFFFFFFFFFD
:1027EC00496E697469616C697A652E2E2E2E2E00E5
:0827FC00416E676C65203A0094
:0C2804004D61676E6574696373203A00D3
:0428100000000000C4
:0428140000000000C0
:0428180000000000BC
:0C281C0045170000BD16000099160000D2
:04282800A086010085
:00000001FF
