:10000000C8EF0DF00000000000EF00F0000000005D
:0A0010000000000000000000F3D71C
:0E001C000001DEB102D08B9801D08B8812005B
:0E002A000001DEB102D08B9601D08B86120051
:0E0038000001DEB102D08D9601D08D8612003F
:0E0046000001DEB102D0899401D0898412003D
:0E0054000001DEB102D08B9C01D08B8C12001B
:0E0062000001DEB102D08B9401D08B8412001D
:0E0070000001DEB102D08B9A01D08B8A120003
:0E007E000001DEB102D08B9E01D08B8E1200ED
:0E008C000001DEB102D08A9201D08A821200F9
:0E009A000001DEB102D08D9401D08D841200E1
:0E00A8000001DEB102D08F9201D08F821200D3
:0E00B6000001DEB102D08F9401D08F841200C1
:0E00C4000001DEB102D08B9801D08B881200B3
:0E00D2000001DEB102D08B9601D08B861200A9
:0E00E0000001DEB102D08A9401D08A841200A1
:0E00EE000001DEB102D08B9801D08B88120089
:0E00FC000001DEB102D08B9601D08B8612007F
:0E010A000001DEB102D08F9001D08F80120074
:0E0118000001DEB102D08B9A01D08B8A12005A
:0E0126000001DEB102D08B9801D08B88120050
:0E0134000001DEB102D08B9801D08B88120042
:0E0142000001DEB102D08B9601D08B86120038
:0E0150000001DEB102D08B9201D08B82120032
:0E015E000001DEB102D08B9A01D08B8A120014
:0E016C000001DEB102D08D9001D08D80120016
:10017A000F0121B302D00000FBD7DEC01CFF120022
:0E018A00ACB202D00000FCD7DEC0ADFF120008
:0E0198000001DEB102D08B9001D08B801200EE
:0E01A6000001DEB102D0899001D089801200E4
:0E01B4000001DEB102D0899801D089881200C6
:0E01C2000001DEB102D0899201D089821200C4
:0E01D0000001DEB102D08B9601D08B861200AA
:0E01DE000001DEB102D08D9201D08D821200A0
:0E01EC000001DEB102D08B9801D08B8812008A
:0E01FA000001DEB102D08B9E01D08B8E120070
:0E0208000001DEB102D08A9001D08A8012007F
:0E0216000001DEB102D08B9601D08B86120063
:0E0224000001DEB102D08B9C01D08B8C120049
:10023200F250026EF29E0500FF6A0150FE6E0050FF
:08024200FD6E02BEF28E1200F7
:10024A0068B409D01F0E6614016E0150000A03E15A
:0A025A00010E006E01D0006A1200D0
:10026400C7B409D01F0EC514016E0150000A03E182
:0A027400010E006E01D0006A1200B6
:0A027E00000E84B6010E006E12009F
:0A028800000E82BE010E006E12008F
:0A029200000E81B2010E006E120092
:0A029C00000E82BC010E006E12007D
:0A02A600000E80B4010E006E12007D
:0A02B000000E82BC010E006E120069
:0A02BA00000E82B4010E006E120067
:0A02C400000E82BE010E006E120053
:0A02CE00000E82B6010E006E120051
:0A02D800000E82B8010E006E120045
:0A02E200000E84B4010E006E12003D
:0A02EC00000E80B2010E006E120039
:0A02F600000E82B6010E006E120029
:0A030000000E82B8010E006E12001C
:0A030A00000E82BA010E006E120010
:0A031400000E82B6010E006E12000A
:0A031E00000E80B8010E006E120000
:0A032800000E84B2010E006E1200F8
:0A033200000E82B6010E006E1200EC
:10033C0039C0D8F03AC0D9F03BC0DAF03CC0DBF0A1
:10034C00C582C5A21FD039503A103B103C1019E0A1
:10035C000001D851D911DA11DB110CE189C0E1FF90
:10036C008AC0E2FF060EE66E87C000F088C001F07E
:10037C005ADF08D0010E0001D85F000ED95BDA5BA2
:06038C00DB5BDFD712006D
:04039200C58412000C
:100396003DC0DAF03EC0DBF03FC0DCF040C0DDF02F
:1003A600A19A6686A1BA1FD03D503E103F1040105C
:1003B60019E00001DA51DB11DC11DD110CE19EC000
:1003C600E1FF9FC0E2FF030EE66E9CC000F09DC0F9
:1003D60001F02CDF08D0010E0001DA5F000EDB5BB6
:1003E600DC5BDD5BDFD700016ACFD9F0D851000AAC
:1003F60002E1668A01D0669AA19A66883DC0DAF063
:100406003EC0DBF03FC0DCF040C0DDF0A1BA1FD03B
:100416003D503E103F10401019E00001DA51DB114B
:10042600DC11DD110CE19EC0E1FF9FC0E2FF030E6F
:10043600E66E9CC000F09DC001F0F8DE08D0010E0B
:100446000001DA5F000EDB5BDC5BDD5BDFD7D9C06A
:0404560000F01200A0
:10045A00A19AD8C06AFF3DC0D9F03EC0DAF03FC0C9
:10046A00DBF040C0DCF068A421D03D503E103F10C4
:10047A0040101BE00001D951DA11DB11DC110EE149
:10048A009EC0E1FF9FC0E2FF040EE66E9CC000F032
:10049A009DC001F0C9DE010E006E3AD0010E0001C6
:1004AA00D95F000EDA5BDB5BDC5BDDD73DC0D9F0E0
:1004BA003EC0DAF03FC0DBF040C0DCF0A1BA21D088
:1004CA003D503E103F1040101BE00001D951DA1197
:1004DA00DB11DC110EE19EC0E1FF9FC0E2FF040EBA
:1004EA00E66E9CC000F09DC001F09EDE010E006E1B
:1004FA000FD0010E0001D95F000EDA5BDB5BDC5B1B
:10050A00DDD766BC02D0006A03D06684020E006E94
:02051A001200CD
:10051C003DC0D8F03EC0D9F03FC0DAF040C0DBF0AF
:10052C00668266A21FD03D503E103F10401019E06D
:10053C000001D851D911DA11DB110CE19EC0E1FF99
:10054C009FC0E2FF060EE66E9CC000F09DC001F05D
:10055C006ADE08D0010E0001D85F000ED95BDA5BB1
:06056C00DB5BDFD712008B
:100572000B840BAEC4EF02F0010E036E026A016A35
:0A058200006A0A360232FF0E120072
:08058C000AAE029E000E1200EF
:0A059400000E82B8010E006E120086
:0E059E00026A016A006A086A036A000E12000F
:1005AC009E96D8C0C9FF39C0D9F03AC0DAF03BC02A
:1005BC00DBF03CC0DCF0C7A421D039503A103B1022
:1005CC003C101BE00001D951DA11DB11DC110EE1FA
:1005DC0089C0E1FF8AC0E2FF040EE66E87C000F01E
:1005EC0088C001F020DE010E006E3AD0010E000131
:1005FC00D95F000EDA5BDB5BDC5BDDD739C0D9F091
:10060C003AC0DAF03BC0DBF03CC0DCF09EB621D047
:10061C0039503A103B103C101BE00001D951DA1153
:10062C00DB11DC110EE189C0E1FF8AC0E2FF040E90
:10063C00E66E87C000F088C001F0F5DD010E006E9B
:10064C000FD0010E0001D95F000EDA5BDB5BDC5BC7
:10065C00DDD7C5BC02D0006A03D0C584020E006E83
:02066C0012007A
:0A066E00000E86B0010E006E1200AF
:0A067800000E82BA010E006E12009F
:0C068200000E0F0121B3010E006E1200EB
:0A068E00000E81B4010E006E120090
:0A069800000E82B8010E006E120081
:0A06A200000E82B8010E006E120077
:1006AC0039C0DAF03AC0DBF03BC0DCF03CC0DDF026
:1006BC009E96C5869EB61FD039503A103B103C1002
:1006CC0019E00001DA51DB11DC11DD110CE189C0FC
:1006DC00E1FF8AC0E2FF030EE66E87C000F088C01F
:1006EC0001F0A1DD08D0010E0001DA5F000EDB5B2A
:1006FC00DC5BDD5BDFD70001C9CFD9F0D851000A34
:10070C0002E1C58A01D0C59A9E96C58839C0DAF037
:10071C003AC0DBF03BC0DCF03CC0DDF09EB61FD035
:10072C0039503A103B103C1019E00001DA51DB1142
:10073C00DC11DD110CE189C0E1FF8AC0E2FF030E80
:10074C00E66E87C000F088C001F06DDD08D0010EA8
:10075C000001DA5F000EDB5BDC5BDD5BDFD7D9C051
:04076C0000F0120087
:0A077000000E86B2010E006E1200AA
:0A077A00000EACB2010E006E12007A
:0A078400000E86B4010E006E120094
:0A078E00000E82B6010E006E12008C
:100798001DCF01F00F0122A302D02299228901C0A6
:0407A80000F012004B
:0A07AC00000EA4BA010E006E120048
:1007B6003DC0DAF03EC0DBF03FC0DCF040C0DDF00B
:1007C6000001D86BD96BD951120802E1D8518E08B5
:1007D60008E338DD005201E004D00001D84BD92BE4
:1007E600F2D70001120ED95D02E18F0ED85D03E348
:1007F6007B0E006E24D0668066A020D03D503E1051
:100806003F1040101AE0DA51DB11DC11DD110EE168
:100816009EC0E1FF9FC0E2FF050EE66E9CC000F0A1
:100826009DC001F003DD010E006E09D0010E00012E
:10083600DA5F000EDB5BDC5BDD5BDED7006A120095
:1008460039C0DAF03AC0DBF03BC0DCF03CC0DDF08A
:100856000001D86BD96BD951120802E1D8518E0824
:1008660008E3FDDC005201E004D00001D84BD92B8F
:10087600F2D70001120ED95D02E18F0ED85D03E3B7
:100886007B0E006E24D0C580C5A020D039503A100A
:100896003B103C101AE0DA51DB11DC11DD110EE1E0
:1008A60089C0E1FF8AC0E2FF050EE66E87C000F050
:1008B60088C001F0BBDC010E006E09D0010E0001FC
:1008C600DA5F000EDB5BDC5BDD5BDED7006A120005
:0A08D600000E82BA010E006E12003F
:0408E0006684120018
:0A08E400000E9EBA010E006E120015
:1008EE00AECF01F0ABA202D0AB98AB8801C000F046
:0208FE001200E6
:0A090000000E82B2010E006E12001C
:0A090A00000E81B0010E006E120015
:0A091400000E82B0010E006E12000A
:0A091E00000E84B0010E006E1200FE
:0A092800000E82B8010E006E1200EE
:0A093200000E80B0010E006E1200EE
:0A093C00000E82B6010E006E1200DC
:100946000B800BAEAFEF04F0026A0AAEFF0E026E2A
:0C095600016E006E0A360232FF0E120025
:100962000C6A0E6A0250D8A4CAEF04F001C002F069
:1009720000C001F0006A0E860250D8A4CAEF04F04B
:1009820001C002F0016A0E960E880250D8B4DCEF64
:1009920004F00E50035ED8A4D8A0E1EF04F0D89082
:1009A20002BEE6EF04F0003601360236032ED1EF26
:1009B20004F0E1EF04F0010E0C6EF0DDE9EF04F05B
:1009C200020E0C6ED5DDE9EF04F0040E0C6EDDDDD7
:0209D200120011
:1009D4008A0E0001B06F010EB16FDE0EB26F000E11
:1009E400B36FEE0EB46F080EB56F000EB66F000E47
:1009F400B76FE40EA86F080EA96F000EAA6F000E61
:100A0400AB6F7A0EAC6F070EAD6F000EAE6F000EBB
:100A1400AF6FAC8A900EAB6E948E949C9EAA03D05A
:080A2400AECF00F0FBD7120079
:100A2C00640E436E020E446E000E456E000E466E52
:100A3C00460E476E080E486E000E496E000E4A6E4A
:100A4C003C0E4B6E030E4C6E000E4D6E000E4E6E39
:100A5C00AC0E4F6E060E506ED80E516E000E526ECE
:100A6C00AC0E0001BC6F050EBD6FD80EBE6F000E34
:100A7C00BF6F920EB86F030EB96F000EBA6F000EF7
:100A8C00BB6F949894968B988B9694889486C79EFB
:080A9C00C79C380EC66E120063
:100AA4000B820BAE5CEF05F0036802680168006816
:080AB4000A360232FF0E1200A7
:100ABC007A0E0001B06F010EB16FDE0EB26F000E38
:100ACC00B36F980EB46F070EB56F000EB66F000EB5
:100ADC00B76FAC0EA86F070EA96F000EAA6F000EB1
:100AEC00AB6F820EAC6F060EAD6F000EAE6F000ECC
:100AFC00AF6F0F01218B900E226F98849892A4AA4D
:0A0B0C0003D01DCF00F0FBD712004C
:100B1600086A096A100E0C6E01340836093604504C
:100B2600085E0550D8A0053C095ED8B007D0045031
:100B360008260550D8B0053C0926D890003601365F
:060B46000C2EEAD712009C
:020B4C00120095
:100B4E000001CA6BCB6BA4C000F0A5C001F019EC7C
:100B5E0001F000C0CAF0000E0001CB6FCAC000F059
:060B6E00CBC001F01200F3
:100B740021D0CF0EAF6EAC942BDF6BD0670EAF6E6F
:100B8400AC9426DF66D0CF0EAF6EAC8421DF61D08B
:100B9400670EAF6EAC841CDF5CD0440EAF6EAC84C9
:100BA40017DF57D0220EAF6EAC8412DF52D0060E80
:100BB400006E58D00001000E006ECD1908E10050FF
:100BC400CC1905E1120ECB1902E1CA51C00AD1E0D9
:100BD400000E006ECD1908E10050CC1905E1250E78
:100BE400CB1902E1CA51800AC9E0000E006ECD198A
:100BF40008E10050CC1905E14B0ECB1902E1CA51B2
:100C0400000AC1E0000E006ECD1908E10050CC19B5
:100C140005E1960ECB1902E1CA51000AB9E0000EB3
:100C2400006ECD1908E10050CC1905E1E10ECB1995
:100C340002E1CA51000AB1E0CD51000A08E1CC51E9
:100C4400010A05E1CB51C20A02E1CA51000AAAE035
:100C5400AED78A0E986F010E996FDE0E9A6F000E52
:060C64009B6F006A120004
:100C6A00CAC0F6FFCBC0F7FFCCC0F8FF0900F5CF2A
:100C7A00A4F00900F5CFA5F00900F5CFA6F0090008
:100C8A00F5CFA7F0040E0001CA25F66E000ECB219F
:100C9A00F76E000ECC21F86E0900F5CF8FF009002F
:100CAA00F5CF90F00900F5CF91F00900F5CF92F059
:100CBA00080ECA25F66E000ECB21F76E000ECC2167
:100CCA00F86E0900F5CFA0F00900F5CFA1F00900F0
:100CDA00F5CFA2F00900F5CFA3F00C0ECA25F66EE7
:100CEA00000ECB21F76E000ECC21F86E0900F5CF6D
:100CFA0093F00900F5CF94F00900F5CF95F00900BB
:100D0A00F5CF96F0100ECA25F66E000ECB21F76EBF
:100D1A00000ECC21F86E0900F5CF8BF00900F5CF53
:100D2A008CF00900F5CF8DF00900F5CF8EF0120096
:100D3A00CAC0CDF0CBC0CEF0CCC0CFF00BD0A00E45
:100D4A00C86E6FDE44D0280EC86E6BDE40D0040E2B
:100D5A00006E3FD0CDC0F6FFCEC0F7FFCFC0F8FF80
:100D6A000900F5CF01F00900F5CF02F00900F5CF2F
:100D7A0003F00900F5CF04F00450000A08E103501B
:100D8A00010A05E10250860A02E10150A00AD7E0F1
:100D9A00CDC0F6FFCEC0F7FFCFC0F8FF0900F5CFF0
:100DAA0001F00900F5CF02F00900F5CF03F00900C0
:100DBA00F5CF04F00450000A08E10350060A05E1E1
:100DCA0002501A0A02E10150800ABDE0C0D7000EA3
:040DDA00006E120095
:100DDE00CAC0CDF0CBC0CEF0CCC0CFF00BD0A00EA1
:100DEE00C86E1DDE44D0280EC86E19DE40D0040E2B
:100DFE00006E3FD0CDC0F6FFCEC0F7FFCFC0F8FFDC
:100E0E000900F5CF01F00900F5CF02F00900F5CF8A
:100E1E0003F00900F5CF04F00450000A08E1035076
:100E2E00010A05E10250860A02E10150A00AD7E04C
:100E3E00CDC0F6FFCEC0F7FFCFC0F8FF0900F5CF4B
:100E4E0001F00900F5CF02F00900F5CF03F009001B
:100E5E00F5CF04F00450000A08E10350060A05E13C
:100E6E0002501A0A02E10150800ABDE0C0D7000EFE
:040E7E00006E1200F0
:100E8200CAC0CDF0CBC0CEF0CCC0CFF00BD0A00EFC
:100E9200C86ECBDD44D0280EC86EC7DD40D0040E2C
:100EA200006E3FD0CDC0F6FFCEC0F7FFCFC0F8FF37
:100EB2000900F5CF01F00900F5CF02F00900F5CFE6
:100EC20003F00900F5CF04F00450000A08E10350D2
:100ED200010A05E10250860A02E10150A00AD7E0A8
:100EE200CDC0F6FFCEC0F7FFCFC0F8FF0900F5CFA7
:100EF20001F00900F5CF02F00900F5CF03F0090077
:100F0200F5CF04F00450000A08E10350060A05E197
:100F120002501A0A02E10150800ABDE0C0D7000E59
:040F2200006E12004B
:100F260038D00F0120870D0E1F6F040E1E6F21850E
:100F3600C2DD7ED00F012087060E1F6F820E1E6F48
:100F46002185B9DD75D00F012087030E1F6F400E76
:100F56001E6F2185B0DD6CD00F012087010E1F6F3B
:100F6600A00E1E6F2185A7DD63D00F012087010E1D
:100F76001F6F150E1E6F21859EDD5AD00F0120872B
:100F86001F6B8A0E1E6F218596DD52D0060E006EEF
:100F960059D0000E006E0001CD1908E10050CC19A1
:100FA60005E1120ECB1902E1CA51C00ABAE0000EE1
:100FB600006ECD1908E10050CC1905E1250ECB19BC
:100FC60002E1CA51800AB6E0000E006ECD1908E1B2
:100FD6000050CC1905E14B0ECB1902E1CA51000AAB
:100FE600B2E0000E006ECD1908E10050CC1905E103
:100FF600960ECB1902E1CA51000AAEE0000E006E51
:10100600CD1908E10050CC1905E1E10ECB1902E13A
:10101600CA51000AAAE0CD51000A08E1CC51010AE2
:1010260005E1CB51C20A02E1CA51000AA7E0AED7D8
:1010360000017A0E986F010E996FDE0E9A6F000E00
:061046009B6F006A12001E
:10104C0021D0CF0EAF6EAC94BFDC6BD0670EAF6E01
:10105C00AC94BADC66D0CF0EAF6EAC84B5DC61D08C
:10106C00670EAF6EAC84B0DC5CD0440EAF6EAC845B
:10107C00ABDC57D0220EAF6EAC84A6DC52D0060E81
:10108C00006E58D00001000E006ECD1908E1005022
:10109C00CC1905E1120ECB1902E1CA51C00AD1E0FC
:1010AC00000E006ECD1908E10050CC1905E1250E9B
:1010BC00CB1902E1CA51800AC9E0000E006ECD19AD
:1010CC0008E10050CC1905E14B0ECB1902E1CA51D5
:1010DC00000AC1E0000E006ECD1908E10050CC19D9
:1010EC0005E1960ECB1902E1CA51000AB9E0000ED7
:1010FC00006ECD1908E10050CC1905E1E10ECB19B9
:10110C0002E1CA51000AB1E0CD51000A08E1CC510C
:10111C00010A05E1CB51C20A02E1CA51000AAAE058
:10112C00AED78A0E986F010E996FDE0E9A6F000E75
:06113C009B6F006A120027
:1011420021D0CF0EAF6EAC9444DC6BD0670EAF6E85
:10115200AC943FDC66D0CF0EAF6EAC843ADC61D08B
:10116200670EAF6EAC8435DC5CD0440EAF6EAC84DF
:1011720030DC57D0220EAF6EAC842BDC52D0060E80
:10118200006E58D00001000E006ECD1908E100502B
:10119200CC1905E1120ECB1902E1CA51C00AD1E005
:1011A200000E006ECD1908E10050CC1905E1250EA4
:1011B200CB1902E1CA51800AC9E0000E006ECD19B6
:1011C20008E10050CC1905E14B0ECB1902E1CA51DE
:1011D200000AC1E0000E006ECD1908E10050CC19E2
:1011E20005E1960ECB1902E1CA51000AB9E0000EE0
:1011F200006ECD1908E10050CC1905E1E10ECB19C2
:1012020002E1CA51000AB1E0CD51000A08E1CC5115
:10121200010A05E1CB51C20A02E1CA51000AAAE061
:10122200AED78A0E986F010E996FDE0E9A6F000E7E
:061232009B6F006A120030
:101238000B6A0C6A0A6A0350D8B466EF09F0028E8A
:101248008E0E035E03BE2EEF09F0D8B42EEF09F020
:101258006AEF09F0036C080E035CD8A045EF09F0AB
:10126800036E013602C001F0026A080E035CD8A0C2
:1012780045EF09F00136016A0350D8A4D8904FEF22
:1012880009F00350D8B44FEF09F0D8900232013278
:10129800032E49EF09F00BBC01A05CEF09F0D8A0C0
:1012A8005CEF09F0012AD8B4022A02BE79EF09F0EE
:1012B8000AAE7FEF09F0021E011E012AD8B4022AE5
:1012C8007FEF09F0026A016A7FEF09F00B800BAE2D
:1012D80083EF09F0026A0AAE83EF09F0FF0E026E8F
:1012E800016E0A36023283EF09F0010E0C6EA3EC90
:1012F80004F085EF09F0000E0C6E85EF09F0FF0E83
:0C1308000C6E0150006E0250016E1200CD
:101314009AC0E1FF9BC0E2FFCAC0E9FFCBC0EAFF6D
:10132400EECFE6FF98C000F099C001F019EC01F08F
:04133400006A120039
:10133800086A096A000E0762036421EF0AF0025086
:1013480006180A6E075003267E0ED8A0B2EF09F0E1
:10135800035ED8B026EF0AF0B6EF09F0035ED8A016
:101368002BEF0AF0028E068E02C00EF001C00BF0C1
:1013780000C00DF000500402F4CF0CF0015005023B
:10138800F4CF00F0F3CF08F00402F3500C26F45029
:101398000822000E00220D500502F3500C26F450CE
:1013A8000822000E002202500402F3500826F450CE
:1013B800002202500502016A000E0122F3500026A5
:1013C800F45001220D500602F3500826F450002272
:1013D800026A000E012202220B500602F350002678
:1013E800F4500122000E02220E500602F35001268C
:1013F800F450022202BE09EF0AF008360036013620
:1014080002360306D8B42BEF0AF01CEF0AF0D88096
:10141800800E08640030000E002201220222D8A0AB
:101428001CEF0AF0023201320032034A26EF0AF0BA
:101438000AAE029E000E2EEF0AF0010ECFEC02F06B
:101448002EEF0AF0020E52EC05F02EEF0AF0040E11
:06145800B9EC02F01200E5
:10145E000001D26BD36BCBC0D0F0CCC0D1F0CAC0E0
:10146E0000F000360090008095C0E1FF96C0E2FFCC
:10147E0000C0E6FF93C000F094C001F019EC01F03B
:10148E0000500001D213000ED313010ECD5F000EDB
:10149E00CE5BCD51CE1116E08DC0E1FF8EC0E2FFC6
:1014AE00010EE66E8BC000F08CC001F019EC01F05D
:1014BE00D0C0E1FFD1C0E2FF00C0E6FF0001D04B7B
:1014CE00D12BE3D78DC0E1FF8EC0E2FFE66A8BC061
:1014DE0000F08CC001F019EC01F0D0C0E1FFD1C0DA
:1014EE00E2FF00C0E6FF0001CF51000A06E18FC007
:1014FE0000F090C001F019EC01F00001CF51010A8B
:10150E0006E1A0C000F0A1C001F019EC01F0D2C0BC
:08151E0000F0D3C001F012003F
:101526000050086E0150006E016A026A036A0B6A77
:101536000C6A960E036E0A6A00C001F008C000F03D
:0A154600086A026AB1EC04F012001A
:10155000090E0B6E1E0E0C6EE40E0D6E0D2EFED7D8
:0C1560000C2EFCD70B2EFAD70000120056
:10156C000001D26BD36BCBC0D0F0CCC0D1F0CAC0D1
:10157C0000F00036009095C0E1FF96C0E2FF00C07D
:10158C00E6FF93C000F094C001F019EC01F000509C
:10159C000001D213000ED313CDC000F0CEC001F069
:1015AC00010ECD5F000ECE5B0050011018E095C00F
:1015BC00E1FF96C0E2FFD0C0E9FFD1C0EAFFEECF59
:1015CC00E6FF93C000F094C001F019EC01F000505C
:1015DC000001D213000ED313D04BD12BDDD7CF513A
:1015EC00000A06E18FC000F090C001F019EC01F088
:1015FC000001CF51010A06E1A4C000F0A5C001F022
:0E160C0019EC01F0D2C000F0D3C001F01200C2
:10161A000001CE6B050ECE5D0AE2CE51CC25E16EFD
:10162A00000ECD21E26E200EE66ECE2BF3D7CE5100
:10163A00CC25E16E000ECD21E26EE66ACE07CE51D0
:10164A00CC25CF6F000ECD21D06F0A0E046E000E8E
:10165A00056ECAC000F0CBC001F08BEC05F008C0E3
:10166A0000F009C001F0300E0026CFC0E1FFD0C063
:10167A00E2FF00C0E6FF0A0E046E000E056ECAC045
:10168A0000F0CBC001F08BEC05F000C0CAF001C03D
:10169A00CBF0000E011802E1000E001801E102D0A1
:0616AA00CE07CDD71200AF
:1016B0001ED0C1C0CAF0C2C0CBF0C3C0CCF041EC58
:1016C00007F020D0C1C0CAF0C2C0CBF0C3C0CCF07C
:1016D000EFEC06F017D0C1C0CAF0C2C0CBF0C3C057
:1016E000CCF09DEC06F00ED0010E006E0BD0000188
:1016F000C051000ADEE0C051010AE4E0C051020A14
:06170000EAE0F2D712003E
:10170600C0C0C3F0C1C0C4F00D0E0001C56F0A0E03
:10171600C66F35D0C3C0CAF0C4C0CBF0F8DD3AD02E
:10172600C3C0E9FFC4C0EAFFEE5209E0C3C0CAF075
:10173600C4C0CBF0ECDD0001C34BC42BF1D72AD0DB
:10174600C3C0E9FFC4C0EAFFEE5209E0C3C0CAF055
:10175600C4C0CBF0DCDD0001C34BC42BF1D70001C4
:10176600C50ECA6F000ECB6FD2DDC60E0001CA6F62
:10177600000ECB6FCCDD0ED0060E006E0CD0000135
:10178600C251000AC7E0C251010ACAE0C251020AA8
:08179600D7E0F2D7006A12004F
:10179E002DD0C1C0CAF0C2C0CBF0C3C0CCF0C4C003
:1017AE00CDF0C8DC31D0C1C0CAF0C2C0CBF0C3C0CE
:1017BE00CCF0C4C0CDF043DC27D0C1C0CAF0C2C04B
:1017CE00CBF0C3C0CCF0C4C0CDF093EC07F01CD06E
:1017DE00C1C0CAF0C2C0CBF0C3C0CCF0C4C0CDF003
:1017EE00BAEC05F011D0010E006E0ED00001C05102
:1017FE00000ACFE0C051010AD6E0C051020ADDE076
:0A180E00C051100AE5E0EFD7120008
:10181800200E0001C06FA7EC05F097C0CAF0C00EFB
:10182800CB6F000ECC6F010ECD6F000ECE6F010E88
:10183800CF6F98DE89DE97C0CAF0C10E0001CB6F6A
:10184800000ECC6F020ECD6F000ECE6FCF6B03DE95
:10185800C1C0C3F0000E0001C46FC3C001F0006A2C
:1018680000C0C3F001C0C4F0C2510012000E011242
:1018780000C0C3F001C0C4F0FF0E00160F0E011621
:1018880000C0C3F001C0C4F04ADE000E046E000EB2
:10189800056E340E066E7B0E076E4ADDC9DC12003B
:1018A8001E0E0001C26FC1C000F0016A00C0C3F083
:1018B800FF0EC015C46FA7EC05F097C0CAF0C20EA2
:1018C800CB6F000ECC6F030ECD6F000ECE6FCF6BBB
:0618D80049DE3ADE1200B9
:1018DE002A0E0001C06FA7EC05F097C0CAF0C00E2B
:1018EE00CB6F000ECC6F010ECD6F000ECE6F010EC2
:1018FE00CF6F35DE26DE97C0CAF0C10E0001CB6F6A
:10190E00000ECC6F020ECD6F000ECE6FCF6BA0DD32
:10191E00C1C0C3F0000E0001C46FC3C001F0006A65
:10192E0000C0C3F001C0C4F0C2510012000E01127B
:10193E0000C0C3F001C0C4F0FF0E00160F0E01165A
:0A194E0000C0C3F001C0C4F0120095
:10195800520E0B6E2B0E0C6E000E0D6E0D2EFED75A
:0C1968000C2EFCD70B2EFAD7000012004A
:101974000001C66BC76BC0C0C8F0C1C0C9F0800EFF
:10198400C119006E800E005C02E1000EC05D0BE226
:10199400010EC66F000EC76FC0510008C86FC1C0EA
:1019A400C9F0000EC957C8C0CAF0C9C0CBF0C2C044
:1019B400CCF0C3C0CDF02FDE060EC46F000EC56F91
:1019C400000E006EC551005C02E1C451000819E22A
:1019D400C451C225E16EC551C321E26E010EC45D3E
:1019E400006E000EC559016E0050C225E96E01500B
:1019F400C321EA6EEECFE6FF010EC45F000EC55BA5
:101A0400DFD7C2C0E1FFC3C0E2FF200EE66EC651BD
:101A1400C7111AE0C46BC56BC451C225E96EC55128
:101A2400C321EA6EEE50200A03E1C44BC52BF4D760
:101A3400010EC45F000EC55BC451C225E16EC551E1
:0A1A4400C321E26E2D0EE66E1200C3
:101A4E00C6C097F0C3C0CAF0C4C0CBF0C5C0CCF0BE
:101A5E0035EC06F0C0C0CAF0C1C0CBF0C2C0CCF0AD
:061A6E00A6EC05F01200D9
:101A74000001C06B3E0EC16F1C0EC26F000EC36F1F
:101A840015DE100E0001C06F800EC16F250EC26FEF
:0C1A9400000EC36FC46F81DE59DD12002C
:101AA0000900F5CFE6FF0006FBE10106F9E11200AF
:101AB0009E0E0001C06F1B0EC16F000EC26F2A0E7A
:101AC000C36F1C0EC46F000EC56F0C0EC66FBFDF58
:101AD000000E006E000E016E000E0010C06F01506F
:101AE0001009C16F000EC013080EC113000EC01301
:101AF000020EC113000EC013010EC113800EC013DD
:101B0000000EC113D1DE210E0001C06F000EC16FA7
:081B1000020EC26FF8DD1200A5
:101B18007FDE00C053F001C054F000C0C0F001C027
:101B2800C1F0550EC26F000EC36F20DF310EC06FBB
:101B3800000EC16F010EC26FE2DD550E0001C06FCD
:101B4800000EC16F020EC26FDADDC5DE00C041F0C3
:101B580001C042F000C0C0F001C0C1F0550EC26F14
:101B6800000EC36F03DF150EC06F000EC16F010EAC
:101B7800C26FC5DD550E0001C06F000EC16F020EA9
:081B8800C26FBDDDE5DE1200B5
:0E1B900021EC0EF06FDF8CDFBFDFFED7FFD73A
:101C420010EE15F02C0E006E010E016EFE0EF66EF9
:0E1C52001B0EF76E000EF86E50EC0DF0120037
:101B9E00A601DE009801DE006C01DE004201DE00CF
:101BAE003401DE005E01DE005001DE000802DE00C0
:101BBE00FA01DE002402DE001602DE00EC01DE0079
:101BCE0032090000140900001E0900003C09000043
:101BDE0028090000D6080000000900000A090000CC
:101BEE00C40200009C020000F602000094050000F2
:0C1BFE004D61676E6574696373203A00E6
:101C0A00496E697469616C697A652E2E2E2E2E00D2
:081C1A00416E676C65203A0081
:041C220000000000BE
:041C260000000000BA
:101C2A0046080000920300003C030000AC05D800FF
:041C3A00AC06D8001C
:041C3E00A08601007B
:020000040030CA
:0E00000015137F7CF98B91FFFFC0FFE0FF40DE
:00000001FF
